{
  "contractName": "Ballot",
  "abi": [
    {
      "constant": true,
      "inputs": [],
      "name": "owner",
      "outputs": [
        {
          "name": "",
          "type": "address"
        }
      ],
      "payable": false,
      "stateMutability": "view",
      "type": "function"
    },
    {
      "constant": true,
      "inputs": [],
      "name": "votingState",
      "outputs": [
        {
          "name": "",
          "type": "uint8"
        }
      ],
      "payable": false,
      "stateMutability": "view",
      "type": "function"
    },
    {
      "inputs": [
        {
          "name": "votingQuestion",
          "type": "string"
        },
        {
          "name": "numberOfAuthNodes",
          "type": "uint256"
        },
        {
          "name": "addresses",
          "type": "address[]"
        }
      ],
      "payable": false,
      "stateMutability": "nonpayable",
      "type": "constructor"
    },
    {
      "anonymous": false,
      "inputs": [
        {
          "indexed": true,
          "name": "from",
          "type": "address"
        },
        {
          "indexed": false,
          "name": "success",
          "type": "bool"
        },
        {
          "indexed": false,
          "name": "reason",
          "type": "string"
        }
      ],
      "name": "VoteStatusEvent",
      "type": "event"
    },
    {
      "anonymous": false,
      "inputs": [
        {
          "indexed": true,
          "name": "from",
          "type": "address"
        },
        {
          "indexed": false,
          "name": "success",
          "type": "bool"
        },
        {
          "indexed": false,
          "name": "reason",
          "type": "string"
        }
      ],
      "name": "SystemStatusEvent",
      "type": "event"
    },
    {
      "constant": false,
      "inputs": [
        {
          "name": "params",
          "type": "uint256[3]"
        }
      ],
      "name": "setParameters",
      "outputs": [],
      "payable": false,
      "stateMutability": "nonpayable",
      "type": "function"
    },
    {
      "constant": false,
      "inputs": [],
      "name": "generatePublicKey",
      "outputs": [],
      "payable": false,
      "stateMutability": "nonpayable",
      "type": "function"
    },
    {
      "constant": false,
      "inputs": [],
      "name": "openBallot",
      "outputs": [],
      "payable": false,
      "stateMutability": "nonpayable",
      "type": "function"
    },
    {
      "constant": false,
      "inputs": [],
      "name": "closeBallot",
      "outputs": [],
      "payable": false,
      "stateMutability": "nonpayable",
      "type": "function"
    },
    {
      "constant": false,
      "inputs": [],
      "name": "combineDecryptedShares",
      "outputs": [],
      "payable": false,
      "stateMutability": "nonpayable",
      "type": "function"
    },
    {
      "constant": true,
      "inputs": [
        {
          "name": "a",
          "type": "string"
        },
        {
          "name": "b",
          "type": "string"
        }
      ],
      "name": "compareStrings",
      "outputs": [
        {
          "name": "",
          "type": "bool"
        }
      ],
      "payable": false,
      "stateMutability": "view",
      "type": "function"
    },
    {
      "constant": false,
      "inputs": [
        {
          "name": "key",
          "type": "uint256"
        },
        {
          "name": "proof_c",
          "type": "uint256"
        },
        {
          "name": "proof_d",
          "type": "uint256"
        }
      ],
      "name": "submitPublicKeyShare",
      "outputs": [
        {
          "name": "",
          "type": "bool"
        },
        {
          "name": "",
          "type": "string"
        }
      ],
      "payable": false,
      "stateMutability": "nonpayable",
      "type": "function"
    },
    {
      "constant": false,
      "inputs": [
        {
          "name": "share",
          "type": "uint256"
        },
        {
          "name": "a",
          "type": "uint256"
        },
        {
          "name": "b",
          "type": "uint256"
        },
        {
          "name": "a1",
          "type": "uint256"
        },
        {
          "name": "b1",
          "type": "uint256"
        },
        {
          "name": "d",
          "type": "uint256"
        },
        {
          "name": "f",
          "type": "uint256"
        }
      ],
      "name": "submitDecryptedShare",
      "outputs": [
        {
          "name": "",
          "type": "bool"
        },
        {
          "name": "",
          "type": "string"
        }
      ],
      "payable": false,
      "stateMutability": "nonpayable",
      "type": "function"
    },
    {
      "constant": false,
      "inputs": [
        {
          "name": "cipher",
          "type": "uint256[2]"
        },
        {
          "name": "a",
          "type": "uint256[2]"
        },
        {
          "name": "b",
          "type": "uint256[2]"
        },
        {
          "name": "c",
          "type": "uint256[2]"
        },
        {
          "name": "f",
          "type": "uint256[2]"
        }
      ],
      "name": "vote",
      "outputs": [
        {
          "name": "",
          "type": "bool"
        },
        {
          "name": "",
          "type": "string"
        }
      ],
      "payable": false,
      "stateMutability": "nonpayable",
      "type": "function"
    },
    {
      "constant": true,
      "inputs": [],
      "name": "getVotingQuestion",
      "outputs": [
        {
          "name": "",
          "type": "string"
        }
      ],
      "payable": false,
      "stateMutability": "view",
      "type": "function"
    },
    {
      "constant": true,
      "inputs": [],
      "name": "getParameters",
      "outputs": [
        {
          "name": "",
          "type": "uint256[3]"
        }
      ],
      "payable": false,
      "stateMutability": "view",
      "type": "function"
    },
    {
      "constant": true,
      "inputs": [],
      "name": "getNrOfPublicKeyShares",
      "outputs": [
        {
          "name": "",
          "type": "uint256"
        }
      ],
      "payable": false,
      "stateMutability": "view",
      "type": "function"
    },
    {
      "constant": true,
      "inputs": [],
      "name": "getPublicKey",
      "outputs": [
        {
          "name": "",
          "type": "uint256"
        }
      ],
      "payable": false,
      "stateMutability": "view",
      "type": "function"
    },
    {
      "constant": true,
      "inputs": [
        {
          "name": "idx",
          "type": "uint256"
        }
      ],
      "name": "getVote",
      "outputs": [
        {
          "name": "",
          "type": "uint256"
        },
        {
          "name": "",
          "type": "uint256"
        }
      ],
      "payable": false,
      "stateMutability": "view",
      "type": "function"
    },
    {
      "constant": true,
      "inputs": [],
      "name": "getNumberOfVotes",
      "outputs": [
        {
          "name": "",
          "type": "uint256"
        }
      ],
      "payable": false,
      "stateMutability": "view",
      "type": "function"
    },
    {
      "constant": true,
      "inputs": [],
      "name": "getBallotStatus",
      "outputs": [
        {
          "name": "",
          "type": "string"
        }
      ],
      "payable": false,
      "stateMutability": "view",
      "type": "function"
    },
    {
      "constant": true,
      "inputs": [],
      "name": "getNrOfDecryptedShares",
      "outputs": [
        {
          "name": "",
          "type": "uint256"
        }
      ],
      "payable": false,
      "stateMutability": "view",
      "type": "function"
    },
    {
      "constant": true,
      "inputs": [
        {
          "name": "idx",
          "type": "uint256"
        }
      ],
      "name": "getDecryptedShare",
      "outputs": [
        {
          "name": "",
          "type": "uint256"
        }
      ],
      "payable": false,
      "stateMutability": "view",
      "type": "function"
    },
    {
      "constant": true,
      "inputs": [],
      "name": "getVoteResult",
      "outputs": [
        {
          "name": "",
          "type": "uint256"
        }
      ],
      "payable": false,
      "stateMutability": "view",
      "type": "function"
    }
  ],
  "bytecode": "0x60806040526000805460ff19169055601280546201000060b060020a0319163362010000021790553480156200003457600080fd5b506040516200425c3803806200425c833981018060405260608110156200005a57600080fd5b8101908080516401000000008111156200007357600080fd5b820160208101848111156200008757600080fd5b8151640100000000811182820187101715620000a257600080fd5b50506020820151604090920180519194929391640100000000811115620000c857600080fd5b82016020810184811115620000dc57600080fd5b8151856020820283011164010000000082111715620000fa57600080fd5b5050929190505050604051620001109062000223565b604051809103906000f0801580156200012d573d6000803e3d6000fd5b50600060016101000a815481600160a060020a030219169083600160a060020a03160217905550604051620001629062000231565b604051809103906000f0801580156200017f573d6000803e3d6000fd5b5060018054600160a060020a031916600160a060020a0392909216919091179055604051620001ae906200023f565b604051809103906000f080158015620001cb573d6000803e3d6000fd5b5060028054600160a060020a031916600160a060020a03929092169190911790558251620002019060079060208601906200024d565b50805162000217906013906020840190620002d2565b5050601455506200037f565b610bcc806200297483390190565b6106c8806200354083390190565b6106548062003c0883390190565b828054600181600116156101000203166002900490600052602060002090601f016020900481019282601f106200029057805160ff1916838001178555620002c0565b82800160010185558215620002c0579182015b82811115620002c0578251825591602001919060010190620002a3565b50620002ce92915062000338565b5090565b8280548282559060005260206000209081019282156200032a579160200282015b828111156200032a5782518254600160a060020a031916600160a060020a03909116178255602090920191600190910190620002f3565b50620002ce92915062000358565b6200035591905b80821115620002ce57600081556001016200033f565b90565b6200035591905b80821115620002ce578054600160a060020a03191681556001016200035f565b6125e5806200038f6000396000f3fe608060405234801561001057600080fd5b5060043610610194576000357c0100000000000000000000000000000000000000000000000000000000900480638742fc3b116100f5578063b23d422d116100a9578063bed34bba11610083578063bed34bba1461047d578063cee024dc146105be578063df2252b9146105c657610194565b8063b23d422d1461041b578063b62312bf14610423578063bb1f683d1461044f57610194565b8063a10cfae5116100da578063a10cfae5146103cb578063a5ea11da146103d3578063a97b8b4d1461041357610194565b80638742fc3b146103925780638da5cb5b1461039a57610194565b80635a55c1f01161014c578063689778c311610131578063689778c3146102e457806368cdfda51461030d57806373e867fb1461038a57610194565b80635a55c1f0146101ea5780635b71c5231461022057610194565b80632e3344521161017d5780632e334452146101d057806334507556146101d85780634d0013ac146101e257610194565b80631536f616146101995780631f50c0ab146101b3575b600080fd5b6101a16105e2565b60408051918252519081900360200190f35b6101a1600480360360208110156101c957600080fd5b50356105e9565b6101a1610634565b6101e0610645565b005b6101e0610865565b6102076004803603602081101561020057600080fd5b50356108ff565b6040805192835260208301919091528051918290030190f35b610261600480360360e081101561023657600080fd5b5080359060208101359060408101359060608101359060808101359060a08101359060c00135610952565b604051808315151515815260200180602001828103825283818151815260200191508051906020019080838360005b838110156102a8578181015183820152602001610290565b50505050905090810190601f1680156102d55780820380516001836020036101000a031916815260200191505b50935050505060405180910390f35b610261600480360360608110156102fa57600080fd5b5080359060208101359060400135610d0d565b61031561100e565b6040805160208082528351818301528351919283929083019185019080838360005b8381101561034f578181015183820152602001610337565b50505050905090810190601f16801561037c5780820380516001836020036101000a031916815260200191505b509250505060405180910390f35b6101a16110a4565b6101a16110aa565b6103a26110b0565b6040805173ffffffffffffffffffffffffffffffffffffffff9092168252519081900360200190f35b6103156110d2565b6103db61121f565b6040518082606080838360005b838110156104005781810151838201526020016103e8565b5050505090500191505060405180910390f35b6101e0611254565b6101e06112ed565b61042b6117c2565b6040518082600381111561043b57fe5b60ff16815260200191505060405180910390f35b610261600480360361014081101561046657600080fd5b50604081016080820160c0830161010084016117cb565b6105aa6004803603604081101561049357600080fd5b8101906020810181356401000000008111156104ae57600080fd5b8201836020820111156104c057600080fd5b803590602001918460018302840111640100000000831117156104e257600080fd5b91908080601f016020809104026020016040519081016040528093929190818152602001838380828437600092019190915250929594936020810193503591505064010000000081111561053557600080fd5b82018360208201111561054757600080fd5b8035906020019184600183028401116401000000008311171561056957600080fd5b91908080601f016020809104026020016040519081016040528093929190818152602001838380828437600092019190915250929550611df0945050505050565b604080519115158252519081900360200190f35b6101a1611ed7565b6101e0600480360360608110156105dc57600080fd5b50611edd565b600c545b90565b600e80546000918291849081106105fc57fe5b600091825260208083209091015473ffffffffffffffffffffffffffffffffffffffff168252600d905260409020549150505b919050565b600061063e612022565b5060065490565b61064d61208e565b601254610100900460ff16156106b2576040805160008051602061251e833981519152815260206004820152601e60248201527f546865207075626c6963206b657920697320616c7265616479207365742e0000604482015290519081900360640190fd5b601454600c54146106fc5760405160008051602061251e833981519152815260040180806020018281038252602c81526020018061253e602c913960400191505060405180910390fd5b600c8054600091908290811061070e57fe5b600091825260208083209091015473ffffffffffffffffffffffffffffffffffffffff16808352600b90915260409091205490915060015b600c5481101561084457600c8054600091908390811061076257fe5b600091825260208083209091015473ffffffffffffffffffffffffffffffffffffffff16808352600b82526040928390205460035484517fe616559e0000000000000000000000000000000000000000000000000000000081526004810189905260248101929092526044820152925190935073__ModuloMathLib_________________________9263e616559e926064808301939192829003018186803b15801561080d57600080fd5b505af4158015610821573d6000803e3d6000fd5b505050506040513d602081101561083757600080fd5b5051925050600101610746565b5060068190556012805461ff0019166101001790556108616120f2565b5050565b61086d61208e565b610875612022565b61087d61225f565b6000805460ff16600381111561088f57fe5b146108e9576040805160008051602061251e833981519152815260206004820152601a60248201527f4e656564207374617465204b45595f47454e45524154494f4e2e000000000000604482015290519081900360640190fd5b600080546001919060ff191682805b0217905550565b6009805460009182918490811061091257fe5b600091825260209091206001600b909202010154600980548590811061093457fe5b90600052602060002090600b02016001016001015491509150915091565b60006060600260005460ff16600381111561096957fe5b146109ad5760405160008051602061251e833981519152815260040180806020018281038252602c81526020018061256a602c913960400191505060405180910390fd5b336000818152600b60209081526040918290205460015483517fb6b81a26000000000000000000000000000000000000000000000000000000008152600481018e9052602481018d9052604481018c9052606481018b9052608481018a905260a4810189905260c481019590955260e485018290529251909373ffffffffffffffffffffffffffffffffffffffff9093169263b6b81a2692610104808301939192829003018186803b158015610a6257600080fd5b505afa158015610a76573d6000803e3d6000fd5b505050506040513d6020811015610a8c57600080fd5b50511515610a9957600080fd5b6000805b600e54811015610aed57600e805433919083908110610ab857fe5b60009182526020909120015473ffffffffffffffffffffffffffffffffffffffff161415610ae557600191505b600101610a9d565b50610af6612340565b60408051908101604052808d81526020016080604051908101604052808c81526020018b81526020018a8152602001898152508152509050811515610b8557600e80546001810182556000919091527fbb7b4a454dc3493923482f07822329ed19e8244eff582cc204f8554c3620c3fd01805473ffffffffffffffffffffffffffffffffffffffff1916331790555b80600760060160003373ffffffffffffffffffffffffffffffffffffffff1673ffffffffffffffffffffffffffffffffffffffff1681526020019081526020016000206000820151816000015560208201518160010160008201518160000155602082015181600101556040820151816002015560608201518160030155505090505060408051908101604052808c81526020018b815250600760080160008201518160000155602082015181600101559050503373ffffffffffffffffffffffffffffffffffffffff167f13dd6fe92e00365cc4b5b06c43c90e02579bac92daf813dcc92257094835f91460016040518082151515158152602001806020018281038252601c8152602001807f446563727970746564536861726550726f6f66206163636570746564000000008152506020019250505060405180910390a2505060408051808201909152601181527f53756d70726f6f66206163636570746564000000000000000000000000000000602082015260019b909a5098505050505050505050565b600060608160005460ff166003811115610d2357fe5b14610d7d576040805160008051602061251e833981519152815260206004820152601a60248201527f4e656564207374617465204b45595f47454e45524154494f4e2e000000000000604482015290519081900360640190fd5b601254610100900460ff1615610dcc5760405160008051602061251e83398151915281526004018080602001828103825260498152602001806124b36049913960600191505060405180910390fd5b600254604080517fb0caa829000000000000000000000000000000000000000000000000000000008152600481018790526024810186905260448101889052336064820152905173ffffffffffffffffffffffffffffffffffffffff9092169163b0caa82991608480820192602092909190829003018186803b158015610e5257600080fd5b505afa158015610e66573d6000803e3d6000fd5b505050506040513d6020811015610e7c57600080fd5b50511515610ec35760405160008051602061251e83398151915281526004018080602001828103825260248152602001806125966024913960400191505060405180910390fd5b6000805b600c54811015610f1757600c805433919083908110610ee257fe5b60009182526020909120015473ffffffffffffffffffffffffffffffffffffffff161415610f0f57600191505b600101610ec7565b50610f20612360565b5060408051808201825287815281518083019092528682526020828101879052810191909152811515610f9d57600c80546001810182556000919091527fdf6966c971051c3d54ec59162606531493a51404a002842f56009d7e5cf4a8c701805473ffffffffffffffffffffffffffffffffffffffff1916331790555b336000908152600b602090815260409182902083518155928101518051600180860191909155908201516002909401939093558151808301909252601e82527f4b65792047656e65726174696f6e2050726f6f662069732076616c69642e0000908201529097909650945050505050565b60078054604080516020601f600260001961010060018816150201909516949094049384018190048102820181019092528281526060939092909183018282801561109a5780601f1061106f5761010080835404028352916020019161109a565b820191906000526020600020905b81548152906001019060200180831161107d57829003601f168201915b5050505050905090565b600e5490565b60115490565b60125462010000900473ffffffffffffffffffffffffffffffffffffffff1681565b60606000805460ff1660038111156110e657fe5b1415611126575060408051808201909152600e81527f4b45595f47454e45524154494f4e00000000000000000000000000000000000060208201526105e6565b600160005460ff16600381111561113957fe5b1415611179575060408051808201909152600681527f564f54494e47000000000000000000000000000000000000000000000000000060208201526105e6565b600260005460ff16600381111561118c57fe5b14156111cc575060408051808201909152600881527f54414c4c59494e4700000000000000000000000000000000000000000000000060208201526105e6565b600360005460ff1660038111156111df57fe5b14156105e6575060408051808201909152600681527f524553554c54000000000000000000000000000000000000000000000000000060208201526105e6565b61122761237b565b61122f61225f565b5060408051606081018252600354815260045460208201526005549181019190915290565b61125c61208e565b611264612022565b61126c61225f565b600160005460ff16600381111561127f57fe5b146112d9576040805160008051602061251e833981519152815260206004820152601260248201527f4e65656420737461746520564f54494e472e0000000000000000000000000000604482015290519081900360640190fd5b600080546002919060ff19166001836108f8565b600260005460ff16600381111561130057fe5b1461135a576040805160008051602061251e833981519152815260206004820152601460248201527f4e6565642073746174652054414c4c59494e472e000000000000000000000000604482015290519081900360640190fd5b601454600e54146113ba576040805160008051602061251e833981519152815260206004820152601f60248201527f4e72206f662073686172657320213d3d206e72206f66207365616c6572732e00604482015290519081900360640190fd5b600e805460009190829081106113cc57fe5b600091825260208083209091015473ffffffffffffffffffffffffffffffffffffffff16808352600d90915260409091205490915060015b600e5481101561150257600e8054600091908390811061142057fe5b600091825260208083209091015473ffffffffffffffffffffffffffffffffffffffff16808352600d82526040928390205460035484517fe616559e0000000000000000000000000000000000000000000000000000000081526004810189905260248101929092526044820152925190935073__ModuloMathLib_________________________9263e616559e926064808301939192829003018186803b1580156114cb57600080fd5b505af41580156114df573d6000803e3d6000fd5b505050506040513d60208110156114f557600080fd5b5051925050600101611404565b50601054600354604080517fa9008ad60000000000000000000000000000000000000000000000000000000081526004810185905260248101929092525160009273__ModuloMathLib_________________________9263e616559e92849163a9008ad6916044808301926020929190829003018186803b15801561158657600080fd5b505af415801561159a573d6000803e3d6000fd5b505050506040513d60208110156115b057600080fd5b5051600354604080517c010000000000000000000000000000000000000000000000000000000063ffffffff8716028152600481019490945260248401929092526044830152516064808301926020929190829003018186803b15801561161657600080fd5b505af415801561162a573d6000803e3d6000fd5b505050506040513d602081101561164057600080fd5b50516005546003549192506000915b838273__ModuloMathLib_________________________63edbe2fbd909186856040518463ffffffff167c010000000000000000000000000000000000000000000000000000000002815260040180848152602001838152602001828152602001935050505060206040518083038186803b1580156116cd57600080fd5b505af41580156116e1573d6000803e3d6000fd5b505050506040513d60208110156116f757600080fd5b5051146117095782600101925061164f565b60118390556000805460ff1916600317905561175f6117266110d2565b60408051808201909152600681527f524553554c5400000000000000000000000000000000000000000000000000006020820152611df0565b15156117ba576040805160008051602061251e833981519152815260206004820152601260248201527f4e65656420737461746520524553554c542e0000000000000000000000000000604482015290519081900360640190fd5b505050505050565b60005460ff1681565b60006060600160005460ff1660038111156117e257fe5b1461183c576040805160008051602061251e833981519152815260206004820152600e60248201527f566f7465206e6f74206f70656e2e000000000000000000000000000000000000604482015290519081900360640190fd5b611845336122c3565b15156118a0576040805160008051602061251e833981519152815260206004820152601c60248201527f41646472657373206e6f7420616c6c6f77656420746f20766f74652e00000000604482015290519081900360640190fd5b336000908152600a602052604090205460ff161561190d576040805160008051602061251e833981519152815260206004820152601460248201527f566f74657220616c726561647920766f7465642e000000000000000000000000604482015290519081900360640190fd5b600060019054906101000a900473ffffffffffffffffffffffffffffffffffffffff1673ffffffffffffffffffffffffffffffffffffffff16632817a98f8888888888336040518763ffffffff167c01000000000000000000000000000000000000000000000000000000000281526004018087600260200280828437600083820152601f01601f1916909101905086604080828437600083820152601f01601f1916909101905085604080828437600083820152601f01601f1916909101905084604080828437600083820152601f01601f1916909101905083604080828437600081840152601f19601f8201169050808301925050508273ffffffffffffffffffffffffffffffffffffffff1673ffffffffffffffffffffffffffffffffffffffff168152602001965050505050505060206040518083038186803b158015611a5757600080fd5b505afa158015611a6b573d6000803e3d6000fd5b505050506040513d6020811015611a8157600080fd5b50511515611ade576040805160008051602061251e833981519152815260206004820152601860248201527f566f74652050726f6f66206e6f742061636365707465642e0000000000000000604482015290519081900360640190fd5b611ae661239a565b6040805160c08101825290819060808201908a906002908390839080828437600092019190915250505081526040805180820182526020909201919089906002908390839080828437600092019190915250505081526040805180820182526020909201919088906002908390839080828437600092019190915250505081526040805180820182526020909201919087906002908390839080828437600092019190915250505090529050611b9a6123d6565b5060408051808201909152883581526020808a013590820152611bbb6123ed565b50604080516060810182523381526020808201848152928201858152600980546001810180835560009290925284517f6e1540171b6c0c960b71a7020d9f60077f6af931a8bbf590da0223dacf75c7af600b909202918201805473ffffffffffffffffffffffffffffffffffffffff191673ffffffffffffffffffffffffffffffffffffffff909216919091178155955180517f6e1540171b6c0c960b71a7020d9f60077f6af931a8bbf590da0223dacf75c7b0830155909301517f6e1540171b6c0c960b71a7020d9f60077f6af931a8bbf590da0223dacf75c7b1840155905180519394919385937f6e1540171b6c0c960b71a7020d9f60077f6af931a8bbf590da0223dacf75c7b20190611cd49082906002612416565b506020820151611cea9060028084019190612416565b506040820151611d009060048301906002612416565b506060820151611d169060068301906002612416565b5050600880546001908101909155336000818152600a6020908152604091829020805460ff191685179055815193845283018190526011838201527f566f7465207761732061636365707465640000000000000000000000000000006060840152519095507f13dd6fe92e00365cc4b5b06c43c90e02579bac92daf813dcc92257094835f91494509081900360800192509050a2505060408051808201909152601181527f566f74652077617320616363657074656400000000000000000000000000000060208201526001999098509650505050505050565b6000816040516020018082805190602001908083835b60208310611e255780518252601f199092019160209182019101611e06565b6001836020036101000a03801982511681845116808217855250505050505090500191505060405160208183030381529060405280519060200120836040516020018082805190602001908083835b60208310611e935780518252601f199092019160209182019101611e74565b6001836020036101000a0380198251168184511680821785525050505050509050019150506040516020818303038152906040528051906020012014905092915050565b60095490565b611ee561208e565b60125460ff1615611f45576040805160008051602061251e833981519152815260206004820152601d60248201527f53797374656d207061726d657465727320616c72656164792073657421000000604482015290519081900360640190fd5b6040805160608101825282358082526020808501359083018190528484013592840183905260038290556004818155600584905560025485517f80d859110000000000000000000000000000000000000000000000000000000081529182019390935260248101919091526044810192909252915173ffffffffffffffffffffffffffffffffffffffff909216916380d859119160648082019260009290919082900301818387803b158015611ffa57600080fd5b505af115801561200e573d6000803e3d6000fd5b50506012805460ff19166001179055505050565b60125460ff61010090910416151560011461208c576040805160008051602061251e833981519152815260206004820152601260248201527f5075626c6963204b6579206e6f207365742e0000000000000000000000000000604482015290519081900360640190fd5b565b60125462010000900473ffffffffffffffffffffffffffffffffffffffff16331461208c5760405160008051602061251e83398151915281526004018080602001828103825260228152602001806124fc6022913960400191505060405180910390fd5b6120fa61208e565b612102612022565b61210a61225f565b6000805460035460048054600554600654604080517f60a2da4400000000000000000000000000000000000000000000000000000000815294850195909552602484019290925260448301526064820152905161010090920473ffffffffffffffffffffffffffffffffffffffff16926360a2da449260848084019382900301818387803b15801561219b57600080fd5b505af11580156121af573d6000803e3d6000fd5b505060015460035460048054600554600654604080517f60a2da4400000000000000000000000000000000000000000000000000000000815294850195909552602484019290925260448301526064820152905173ffffffffffffffffffffffffffffffffffffffff90921693506360a2da44925060848082019260009290919082900301818387803b15801561224557600080fd5b505af1158015612259573d6000803e3d6000fd5b50505050565b60125460ff16151560011461208c576040805160008051602061251e833981519152815260206004820152601a60248201527f53797374656d20506172616d6574657273206e6f74207365742e000000000000604482015290519081900360640190fd5b6000805b60135460ff82161015612337578273ffffffffffffffffffffffffffffffffffffffff1660138260ff168154811015156122fd57fe5b60009182526020909120015473ffffffffffffffffffffffffffffffffffffffff16141561232f57600091505061062f565b6001016122c7565b50600192915050565b60a0604051908101604052806000815260200161235b612454565b905290565b6060604051908101604052806000815260200161235b6123d6565b6060604051908101604052806003906020820280388339509192915050565b610100604051908101604052806123af61247d565b81526020016123bc61247d565b81526020016123c961247d565b815260200161235b61247d565b604080518082019091526000808252602082015290565b60408051610160810190915260008152602081016124096123d6565b815260200161235b61239a565b8260028101928215612444579160200282015b82811115612444578251825591602001919060010190612429565b50612450929150612498565b5090565b608060405190810160405280600081526020016000815260200160008152602001600081525090565b60408051808201825290600290829080388339509192915050565b6105e691905b80821115612450576000815560010161249e56fe5075626c6963206b6579207368617265732063616e206f6e6c79206265207375626d697474656420696620746865207075626c6963206b6579206973206e6f7420796574207365742e4f6e6c79206f776e65722063616e2063616c6c20746869732066756e6374696f6e2e08c379a0000000000000000000000000000000000000000000000000000000005075626c6963206b65792073686172657320213d3d206e756d626572206f6620617574686f7269746965732e54686520636f6e7472616374206e6565647320746f20626520696e2073746174653a2054414c4c59494e472e4b65792047656e65726174696f6e2050726f6f66206973206e6f7420636f72726563742ea165627a7a723058202841c5c18e0120c33274e3e1277da6c6d396a37cd70a96cbf49a056ca24bb88f0029608060405234801561001057600080fd5b506040805160808101825260008082526020820181905291810182905260600181905280805560018190556002819055600355610b7a806100526000396000f3fe608060405260043610610045577c010000000000000000000000000000000000000000000000000000000060003504632817a98f811461004a57806360a2da4414610171575b600080fd5b34801561005657600080fd5b5061015d600480360361016081101561006e57600080fd5b60408051808201825291830192918183019183906002908390839080828437600092019190915250506040805180820182529295949381810193925090600290839083908082843760009201919091525050604080518082018252929594938181019392509060029083908390808284376000920191909152505060408051808201825292959493818101939250906002908390839080828437600092019190915250506040805180820182529295949381810193925090600290839083908082843760009201919091525091945050503573ffffffffffffffffffffffffffffffffffffffff1690506101a2565b604080519115158252519081900360200190f35b6101a06004803603608081101561018757600080fd5b50803590602081013590604081013590606001356102cf565b005b60006101ac610ae5565b506040805160a0810182528881526020810188905290810186905260608101859052608081018490528651855185518a516000936101ed93909290916102e3565b602083810151810151608085015182015160608601519092015185515193945060009361021b9391906104ef565b60408401515160608501515160808601515186516020015193945060009361024593929190610631565b60408501516020908101516060870151820151608088015183015188519093015193945060009361027693906106ba565b9050600061029786602001518760400151886060015189600001518c61098c565b90508480156102a35750835b80156102ac5750825b80156102b55750815b80156102be5750805b9d9c50505050505050505050505050565b600093909355600191909155600255600355565b60008060006002015473__ModuloMathLib_________________________63edbe2fbd90918660008001546040518463ffffffff167c010000000000000000000000000000000000000000000000000000000002815260040180848152602001838152602001828152602001935050505060206040518083038186803b15801561036c57600080fd5b505af4158015610380573d6000803e3d6000fd5b505050506040513d602081101561039657600080fd5b505160008054604080517fedbe2fbd00000000000000000000000000000000000000000000000000000000815260048101889052602481018a9052604481019290925251929350909173__ModuloMathLib_________________________9163e616559e918a91849163edbe2fbd91606480820192602092909190829003018186803b15801561042557600080fd5b505af4158015610439573d6000803e3d6000fd5b505050506040513d602081101561044f57600080fd5b5051600054604080517c010000000000000000000000000000000000000000000000000000000063ffffffff8716028152600481019490945260248401929092526044830152516064808301926020929190829003018186803b1580156104b557600080fd5b505af41580156104c9573d6000803e3d6000fd5b505050506040513d60208110156104df57600080fd5b5051919091149695505050505050565b60008060006002015473__ModuloMathLib_________________________63edbe2fbd90918760008001546040518463ffffffff167c010000000000000000000000000000000000000000000000000000000002815260040180848152602001838152602001828152602001935050505060206040518083038186803b15801561057857600080fd5b505af415801561058c573d6000803e3d6000fd5b505050506040513d60208110156105a257600080fd5b505160008054604080517fedbe2fbd0000000000000000000000000000000000000000000000000000000081526004810188905260248101899052604481019290925251929350909173__ModuloMathLib_________________________9163e616559e918a91849163edbe2fbd91606480820192602092909190829003018186803b15801561042557600080fd5b60008060006003015473__ModuloMathLib_________________________63edbe2fbd90918660008001546040518463ffffffff167c010000000000000000000000000000000000000000000000000000000002815260040180848152602001838152602001828152602001935050505060206040518083038186803b15801561036c57600080fd5b60008060006003015473__ModuloMathLib_________________________63edbe2fbd90918660008001546040518463ffffffff167c010000000000000000000000000000000000000000000000000000000002815260040180848152602001838152602001828152602001935050505060206040518083038186803b15801561074357600080fd5b505af4158015610757573d6000803e3d6000fd5b505050506040513d602081101561076d57600080fd5b505160025460008054604080517f6378bd6c0000000000000000000000000000000000000000000000000000000081526004810189905260248101949094526044840191909152519293509173__ModuloMathLib_________________________91636378bd6c916064808301926020929190829003018186803b1580156107f457600080fd5b505af4158015610808573d6000803e3d6000fd5b505050506040513d602081101561081e57600080fd5b505160008054604080517fedbe2fbd00000000000000000000000000000000000000000000000000000000815260048101859052602481018b9052604481019290925251929350909173__ModuloMathLib_________________________9163edbe2fbd916064808301926020929190829003018186803b1580156108a257600080fd5b505af41580156108b6573d6000803e3d6000fd5b505050506040513d60208110156108cc57600080fd5b505160008054604080517fe616559e000000000000000000000000000000000000000000000000000000008152600481018d905260248101859052604481019290925251929350909173__ModuloMathLib_________________________9163e616559e916064808301926020929190829003018186803b15801561095057600080fd5b505af4158015610964573d6000803e3d6000fd5b505050506040513d602081101561097a57600080fd5b50519390931498975050505050505050565b6020808401518451600154604080517fa2f0dc8d00000000000000000000000000000000000000000000000000000000815260048101949094526024840192909252604483015251600092839273__ModuloMathLib_________________________9263a2f0dc8d92606480840193919291829003018186803b158015610a1257600080fd5b505af4158015610a26573d6000803e3d6000fd5b505050506040513d6020811015610a3c57600080fd5b505184516020808701518a518a518c8401518c850151604080516c0100000000000000000000000073ffffffffffffffffffffffffffffffffffffffff8e160281890152603481019890985260548801959095526074870193909352609486019190915260b485015260d4808501919091528151808503909101815260f4909301905281519101206001549192509081811515610ad557fe5b0682149250505095945050505050565b61014060405190810160405280610afa610b33565b8152602001610b07610b33565b8152602001610b14610b33565b8152602001610b21610b33565b8152602001610b2e610b33565b905290565b6040805180820182529060029082908038833950919291505056fea165627a7a72305820e2985419a97c1469d955dcbb0a9897d260c7e67040bac70ede26bad49f454b310029608060405234801561001057600080fd5b506040805160808101825260008082526020820181905291810182905260600181905280805560018190556002819055600355610676806100526000396000f3fe608060405260043610610045577c0100000000000000000000000000000000000000000000000000000000600035046360a2da44811461004a578063b6b81a261461007b575b600080fd5b6100796004803603608081101561006057600080fd5b50803590602081013590604081013590606001356100fa565b005b34801561008757600080fd5b506100e6600480360361010081101561009f57600080fd5b5080359060208101359060408101359060608101359060808101359060a08101359073ffffffffffffffffffffffffffffffffffffffff60c0820135169060e0013561010e565b604080519115158252519081900360200190f35b600093909355600191909155600255600355565b6000610118610613565b506040805160c0810182528a8152602081018a9052908101889052606081018790526080810186905260a08101859052600154600090610161908c908c908c908c908a90610591565b825160a084015160008054604080517fedbe2fbd00000000000000000000000000000000000000000000000000000000815260048101959095526024850193909352604484015290519293509173__ModuloMathLib_________________________9163edbe2fbd916064808301926020929190829003018186803b1580156101e957600080fd5b505af41580156101fd573d6000803e3d6000fd5b505050506040513d602081101561021357600080fd5b505160408085015160808601516000805484517fedbe2fbd00000000000000000000000000000000000000000000000000000000815260048101939093526024830188905260448301529251939450919273__ModuloMathLib_________________________9263e616559e9291849163edbe2fbd916064808301926020929190829003018186803b1580156102a857600080fd5b505af41580156102bc573d6000803e3d6000fd5b505050506040513d60208110156102d257600080fd5b5051600054604080517c010000000000000000000000000000000000000000000000000000000063ffffffff8716028152600481019490945260248401929092526044830152516064808301926020929190829003018186803b15801561033857600080fd5b505af415801561034c573d6000803e3d6000fd5b505050506040513d602081101561036257600080fd5b505160025460a086015160008054604080517fedbe2fbd000000000000000000000000000000000000000000000000000000008152600481019590955260248501939093526044840152905192935084841492909173__ModuloMathLib_________________________9163edbe2fbd91606480820192602092909190829003018186803b1580156103f357600080fd5b505af4158015610407573d6000803e3d6000fd5b505050506040513d602081101561041d57600080fd5b5051606087015160008054604080517fedbe2fbd000000000000000000000000000000000000000000000000000000008152600481018e9052602481018b9052604481019290925251939450909273__ModuloMathLib_________________________9263e616559e929091849163edbe2fbd916064808301926020929190829003018186803b1580156104b057600080fd5b505af41580156104c4573d6000803e3d6000fd5b505050506040513d60208110156104da57600080fd5b5051600054604080517c010000000000000000000000000000000000000000000000000000000063ffffffff8716028152600481019490945260248401929092526044830152516064808301926020929190829003018186803b15801561054057600080fd5b505af4158015610554573d6000803e3d6000fd5b505050506040513d602081101561056a57600080fd5b5051905081811483801561057b5750805b9850505050505050505098975050505050505050565b604080516c0100000000000000000000000073ffffffffffffffffffffffffffffffffffffffff85160260208083019190915260348201899052605482018890526074820187905260948083018790528351808403909101815260b49092019092528051910120600090828181151561060657fe5b0698975050505050505050565b60c060405190810160405280600081526020016000815260200160008152602001600081526020016000815260200160008152509056fea165627a7a7230582046bb0238617bd1e0e637a8f4bb04e5a8ced88b17ccc1d84ab87e1eeea53aa2880029608060405234801561001057600080fd5b50604080516060810182526000808252602082018190529101819052808055600181905560025561060e806100466000396000f3fe608060405260043610610045577c0100000000000000000000000000000000000000000000000000000000600035046380d85911811461004a578063b0caa82914610075575b600080fd5b6100736004803603606081101561006057600080fd5b50803590602081013590604001356100db565b005b34801561008157600080fd5b506100c76004803603608081101561009857600080fd5b508035906020810135906040810135906060013573ffffffffffffffffffffffffffffffffffffffff166100e9565b604080519115158252519081900360200190f35b600092909255600155600255565b600080546001546002546100fb6105cb565b506040805180820190915288815260208101889052600061011f83868a8c8e61034a565b9050600061012f85898b85610559565b8351602080860151604080517fedbe2fbd000000000000000000000000000000000000000000000000000000008152600481018a90526024810192909252604482018b9052519394509184149260009273__ModuloMathLib_________________________9263edbe2fbd92606480840193829003018186803b1580156101b557600080fd5b505af41580156101c9573d6000803e3d6000fd5b505050506040513d60208110156101df57600080fd5b50518551604080517fedbe2fbd000000000000000000000000000000000000000000000000000000008152600481018f90526024810192909252604482018b90525191925060009173__ModuloMathLib_________________________9163e616559e918891849163edbe2fbd91606480820192602092909190829003018186803b15801561026d57600080fd5b505af4158015610281573d6000803e3d6000fd5b505050506040513d602081101561029757600080fd5b5051604080517c010000000000000000000000000000000000000000000000000000000063ffffffff861602815260048101939093526024830191909152604482018d9052516064808301926020929190829003018186803b1580156102fc57600080fd5b505af4158015610310573d6000803e3d6000fd5b505050506040513d602081101561032657600080fd5b505190508181148380156103375750805b9f9e505050505050505050505050505050565b6000808673__ModuloMathLib_________________________63edbe2fbd909186896040518463ffffffff167c010000000000000000000000000000000000000000000000000000000002815260040180848152602001838152602001828152602001935050505060206040518083038186803b1580156103ca57600080fd5b505af41580156103de573d6000803e3d6000fd5b505050506040513d60208110156103f457600080fd5b5051604080517fedbe2fbd000000000000000000000000000000000000000000000000000000008152600481018890526024810186905260448101899052905191925060009173__ModuloMathLib_________________________9163edbe2fbd916064808301926020929190829003018186803b15801561047557600080fd5b505af4158015610489573d6000803e3d6000fd5b505050506040513d602081101561049f57600080fd5b5051604080517f6378bd6c0000000000000000000000000000000000000000000000000000000081526004810185905260248101839052604481018a9052905191925060009173__ModuloMathLib_________________________91636378bd6c916064808301926020929190829003018186803b15801561052057600080fd5b505af4158015610534573d6000803e3d6000fd5b505050506040513d602081101561054a57600080fd5b50519998505050505050505050565b604080516c0100000000000000000000000073ffffffffffffffffffffffffffffffffffffffff861602602080830191909152603482018590526054808301859052835180840390910181526074909201909252805191012060009085818115156105c057fe5b069695505050505050565b60408051808201909152600080825260208201529056fea165627a7a7230582093fd486e9c69d22d7a0ac97a5e8aa5c774e8f42f3d85c6341c8918c3632c9c4b0029",
  "source": "pragma solidity ^0.5.3;\n\nimport './VoteProofVerifier.sol';\nimport './SumProofVerifier.sol';\nimport './KeyGenProofVerifier.sol';\nimport './ModuloMathLib.sol';\n\ncontract Ballot {\n    // /////////////////////////////////\n    // libraries\n    // /////////////////////////////////\n    using ModuloMathLib for uint256;\n\n    // /////////////////////////////////\n    // structs\n    // /////////////////////////////////\n    enum VotingState {KEY_GENERATION, VOTING, TALLYING, RESULT}\n\n    // parameters for the elgamal crypto system\n    struct SystemParameters {\n        uint256 p; // prime\n        uint256 q; // prime factor: p = 2*q+1\n        uint256 g; // generator\n    }\n\n    // represents one part of the public key (distributed key generation)\n    // this struct also records a proof along with the public key share\n    struct PublicKeyShare {\n        uint256 share;\n        KeyShareProof keyShareProof;\n    }\n\n    // represents the decryption of all vote-ciphers done by one sealer\n    // each sealer will go through this process and submit it's share\n    // their product will then form the final sum\n    struct DecryptedShare {\n        uint256 share;\n        DecryptedShareProof decryptedShareProof;\n    }\n\n    struct Election {\n        string votingQuestion;\n        uint256 nrOfVoters;\n        Voter[] voters;\n        mapping(address => bool) hasVoted;\n        mapping(address => PublicKeyShare) pubKeyShareMapping;\n        address[] publicKeyShareWallet;\n        mapping(address => DecryptedShare) decryptedShareMapping;\n        address[] decryptedShareWallet;\n        Cipher sumCipher;\n        uint256 yesVotes;\n    }\n\n    struct Voter {\n        address voterAddress;\n        Cipher cipher;\n        VoteProof voteProof;\n    }\n\n    struct Cipher {\n        uint256 a;\n        uint256 b;\n    }\n\n    struct VoteProof {\n        uint256[2] a;\n        uint256[2] b;\n        uint256[2] c;\n        uint256[2] f;\n    }\n\n    struct DecryptedShareProof {\n        uint256 a1;\n        uint256 b1;\n        uint256 d;\n        uint256 f;\n    }\n\n    struct KeyShareProof {\n        uint256 c;\n        uint256 d;\n    }\n\n    // /////////////////////////////////\n    // events\n    // /////////////////////////////////\n    event VoteStatusEvent(address indexed from, bool success, string reason);\n    event SystemStatusEvent(address indexed from, bool success, string reason);\n\n    // /////////////////////////////////\n    // function modifiers\n    // - call internal functions\n    // - otherwise Solidity would duplicate\n    //   and inline the functions, which costs way more gas\n    // /////////////////////////////////\n    modifier onlyOwner {\n        isOwner();\n        _;\n    }\n\n    modifier onlyIfPubKeySet {\n        isPubKeySet();\n        _;\n    }\n\n    modifier onlyIfSysParamsSet {\n        isSysParamsSet();\n        _;\n    }\n\n    function isOwner() internal view {\n        require(msg.sender == owner, 'Only owner can call this function.');\n    }\n\n    function isPubKeySet() internal view {\n        require(IS_PUBKEY_SET == true, 'Public Key no set.');\n    }\n\n    function isSysParamsSet() internal view {\n        require(IS_PARAMETERS_SET == true, 'System Parameters not set.');\n    }\n\n    // /////////////////////////////////\n    // variables\n    // /////////////////////////////////\n    // VotingState private votingState = VotingState.KEY_GENERATION;\n    VotingState public votingState = VotingState.KEY_GENERATION;\n\n    VoteProofVerifier private voteVerifier;\n    SumProofVerifier private sumVerifier;\n    KeyGenProofVerifier private keyGenProofVerifier;\n\n    SystemParameters private systemParameters;\n    uint256 private publicKey;\n    Election private election;\n    bool private IS_PARAMETERS_SET;\n    bool private IS_PUBKEY_SET;\n\n    address public owner = msg.sender;\n\n    // array of addresses that are not allowed to vote (authority, sealers and access provider)\n    address[] private priviledgedAddresses;\n\n    // The number of PublicKeyShare needed to create the publicKey (# of authorities)\n    uint256 private NR_OF_AUTHORITY_NODES;\n\n    // /////////////////////////////////\n    // constructor\n    // /////////////////////////////////\n    constructor(string memory votingQuestion, uint256 numberOfAuthNodes, address[] memory addresses) public {\n        voteVerifier = new VoteProofVerifier();\n        sumVerifier = new SumProofVerifier();\n        keyGenProofVerifier = new KeyGenProofVerifier();\n        election.votingQuestion = votingQuestion;\n        priviledgedAddresses = addresses;\n        NR_OF_AUTHORITY_NODES = numberOfAuthNodes;\n    }\n\n    // /////////////////////////////////////////\n    // VOTING AUTHORITY core functions (owner)\n    // /////////////////////////////////////////\n\n    // set the parameters of the elgamal crypto system\n    // can only be done by the owner (authority) and should\n    // be set after contract deployment\n    function setParameters(uint256[3] calldata params) external onlyOwner {\n        require(!IS_PARAMETERS_SET, 'System parmeters already set!');\n        systemParameters = SystemParameters(params[0], params[1], params[2]);\n        keyGenProofVerifier.initialize(systemParameters.p, systemParameters.q, systemParameters.g);\n        IS_PARAMETERS_SET = true;\n    }\n\n    // generates the public key of the elgamal crypto system\n    // - the public key is generated from all submitted public key shares by the sealer nodes\n    // - their product forms the public key\n    function generatePublicKey() external onlyOwner {\n        // public key can only be generated once\n        require(!IS_PUBKEY_SET, 'The public key is already set.');\n\n        // every sealer needs to have published it's public key share\n        require(\n            election.publicKeyShareWallet.length == NR_OF_AUTHORITY_NODES,\n            'Public key shares !== number of authorities.'\n        );\n\n        // set an initial key (here, we take the first)\n        address firstSealerAddress = election.publicKeyShareWallet[0];\n        uint256 key = election.pubKeyShareMapping[firstSealerAddress].share;\n\n        // form the product of all public key shares\n        for (uint256 i = 1; i < election.publicKeyShareWallet.length; i++) {\n            address addr = election.publicKeyShareWallet[i];\n            key = key.modMul(election.pubKeyShareMapping[addr].share, systemParameters.p);\n        }\n\n        // set the public key\n        publicKey = key;\n\n        IS_PUBKEY_SET = true;\n\n        // trigger the creation of the verifiers (for proof verification)\n        // they depend on the system parameters and public key, that's why\n        // they are created only once the public key is set\n        createVerifiers();\n    }\n\n    // create proof verifiers\n    function createVerifiers() private onlyOwner onlyIfPubKeySet onlyIfSysParamsSet {\n        voteVerifier.initialize(systemParameters.p, systemParameters.q, systemParameters.g, publicKey);\n        sumVerifier.initialize(systemParameters.p, systemParameters.q, systemParameters.g, publicKey);\n    }\n\n    // open the Ballot and change into state VOTING\n    function openBallot() public onlyOwner onlyIfPubKeySet onlyIfSysParamsSet {\n        require(votingState == VotingState.KEY_GENERATION, 'Need state KEY_GENERATION.');\n        votingState = VotingState.VOTING;\n    }\n\n    // close the Ballot and change into state TALLYING\n    function closeBallot() public onlyOwner onlyIfPubKeySet onlyIfSysParamsSet {\n        require(votingState == VotingState.VOTING, 'Need state VOTING.');\n\n        votingState = VotingState.TALLYING;\n    }\n\n    // combine all submitted decrypted shares to find the final tally\n    // each sealer has to first submit it's decrypted share\n    // the product of all decrypted shares will form the final result (nr of yes-votes)\n    function combineDecryptedShares() public {\n        require(votingState == VotingState.TALLYING, 'Need state TALLYING.');\n        require(election.decryptedShareWallet.length == NR_OF_AUTHORITY_NODES, 'Nr of shares !== nr of sealers.');\n\n        // define starting value (here, we take the share of the first address)\n        address firstSealerAddress = election.decryptedShareWallet[0];\n        uint256 res = election.decryptedShareMapping[firstSealerAddress].share;\n\n        // calculate the product of all decrypted shares\n        for (uint256 i = 1; i < election.decryptedShareWallet.length; i++) {\n            address addr = election.decryptedShareWallet[i];\n            res = res.modMul(election.decryptedShareMapping[addr].share, systemParameters.p);\n        }\n\n        uint256 mh = election.sumCipher.b.modMul(res.modInv(systemParameters.p), systemParameters.p);\n\n        // decode message\n        uint256 m = 0;\n        uint256 g = systemParameters.g;\n        uint256 p = systemParameters.p;\n        while ((g.modPow(m, p)) != mh) {\n            // the homomorphic property will reveal how many yes-votes there are\n            m = m + 1;\n        }\n\n        // set the result\n        election.yesVotes = m;\n\n        // move into the RESULT state\n        votingState = VotingState.RESULT;\n        // require(votingState == VotingState.RESULT, 'Need state RESULT.');\n        // require(votingState != VotingState.RESULT, 'Need state RESULT.');\n        // string memory ballotStatus = getBallotStatus();\n        // require(ballotStatus == string('RESULT'), 'Need state RESULT.');\n        // string memory ballotStatus = getBallotStatus();\n        require(compareStrings(getBallotStatus(), string('RESULT')), 'Need state RESULT.');\n        // require(votingState() == 2, 'Need state RESULT.');\n    }\n\n    function compareStrings(string memory a, string memory b) public view returns (bool) {\n        return (keccak256(abi.encodePacked((a))) == keccak256(abi.encodePacked((b))));\n    }\n\n    // /////////////////////////////////\n    // SEALER core functions\n    // /////////////////////////////////\n\n    // submit the public key share from the distributed key generation\n    function submitPublicKeyShare(uint256 key, uint256 proof_c, uint256 proof_d)\n        external\n        returns (bool, string memory)\n    {\n        // accept key shares only if state is KEY_GENERATION\n        // and the public key does not yet exist\n        require(votingState == VotingState.KEY_GENERATION, 'Need state KEY_GENERATION.');\n        require(!IS_PUBKEY_SET, 'Public key shares can only be submitted if the public key is not yet set.');\n        require(\n            keyGenProofVerifier.verifyProof(proof_c, proof_d, key, msg.sender),\n            'Key Generation Proof is not correct.'\n        );\n\n        // check if this address has already submitted a share\n        bool sealerAlreadySubmitted = false;\n\n        for (uint256 i; i < election.publicKeyShareWallet.length; i++) {\n            if (election.publicKeyShareWallet[i] == msg.sender) {\n                sealerAlreadySubmitted = true;\n            }\n        }\n\n        PublicKeyShare memory publicKeyShare = PublicKeyShare(key, KeyShareProof(proof_c, proof_d));\n\n        if (!sealerAlreadySubmitted) {\n            // add sealer address to array\n            election.publicKeyShareWallet.push(msg.sender);\n        }\n\n        // add or replace the share\n        election.pubKeyShareMapping[msg.sender] = publicKeyShare;\n\n        return (true, 'Key Generation Proof is valid.');\n    }\n\n    // submit the decrypted share (a decryption share of all vote-ciphers)\n    function submitDecryptedShare(uint256 share, uint256 a, uint256 b, uint256 a1, uint256 b1, uint256 d, uint256 f)\n        external\n        returns (bool, string memory)\n    {\n        // only allow submission if in state\n        require(votingState == VotingState.TALLYING, 'The contract needs to be in state: TALLYING.');\n\n        // don't accept if proof verification fails\n        uint256 publicKeyShare = election.pubKeyShareMapping[msg.sender].share;\n        require(sumVerifier.verifyProof(a, b, a1, b1, d, f, msg.sender, publicKeyShare));\n\n        // check if this address has already submitted a share\n        bool sealerAlreadySubmitted = false;\n\n        for (uint256 i; i < election.decryptedShareWallet.length; i++) {\n            if (election.decryptedShareWallet[i] == msg.sender) {\n                sealerAlreadySubmitted = true;\n            }\n        }\n\n        DecryptedShare memory decryptedShare = DecryptedShare(share, DecryptedShareProof(a1, b1, d, f));\n\n        if (!sealerAlreadySubmitted) {\n            // add sealer address to array\n            election.decryptedShareWallet.push(msg.sender);\n        }\n\n        // add or replace the share\n        election.decryptedShareMapping[msg.sender] = decryptedShare;\n\n        // store the cipher for later decryption\n        election.sumCipher = Cipher(a, b);\n\n        emit VoteStatusEvent(msg.sender, true, 'DecryptedShareProof accepted');\n        return (true, 'Sumproof accepted');\n    }\n\n    // /////////////////////////////////\n    // VOTER core functions\n    // /////////////////////////////////\n\n    // checks if the given address is allowed to vote\n    // only addresses which are not found in the priviledged addresses array can vote\n    function isVoter(address addr) private view returns (bool) {\n        for (uint8 i = 0; i < priviledgedAddresses.length; i++) {\n            if (priviledgedAddresses[i] == addr) {\n                return false;\n            }\n        }\n        return true;\n    }\n\n    function vote(\n        uint256[2] calldata cipher,\n        uint256[2] calldata a,\n        uint256[2] calldata b,\n        uint256[2] calldata c,\n        uint256[2] calldata f\n    ) external returns (bool, string memory) {\n        require(votingState == VotingState.VOTING, 'Vote not open.');\n        require(isVoter(msg.sender), 'Address not allowed to vote.');\n        require(!election.hasVoted[msg.sender], 'Voter already voted.');\n        require(voteVerifier.verifyProof(cipher, a, b, c, f, msg.sender), 'Vote Proof not accepted.');\n\n        VoteProof memory voteProof = VoteProof(a, b, c, f);\n        Cipher memory _cipher = Cipher(cipher[0], cipher[1]);\n        Voter memory voter = Voter(msg.sender, _cipher, voteProof);\n\n        // add Voter struct\n        election.voters.push(voter);\n        election.nrOfVoters += 1;\n        election.hasVoted[msg.sender] = true;\n\n        emit VoteStatusEvent(msg.sender, true, 'Vote was accepted');\n        return (true, 'Vote was accepted');\n    }\n\n    // /////////////////////////////////\n    // getters\n    // /////////////////////////////////\n\n    // get the voting question\n    function getVotingQuestion() external view returns (string memory) {\n        return election.votingQuestion;\n    }\n\n    // get system parameters\n    function getParameters() external view onlyIfSysParamsSet returns (uint256[3] memory) {\n        return [systemParameters.p, systemParameters.q, systemParameters.g];\n    }\n\n    // get the total number of public key shares\n    function getNrOfPublicKeyShares() public view returns (uint256) {\n        return election.publicKeyShareWallet.length;\n    }\n\n    // get combined public key of the system\n    function getPublicKey() public view onlyIfPubKeySet returns (uint256) {\n        return publicKey;\n    }\n\n    // get a vote cipher at a specific index\n    function getVote(uint256 idx) public view returns (uint256, uint256) {\n        return (election.voters[idx].cipher.a, election.voters[idx].cipher.b);\n    }\n\n    // get the total number of votes in election.voters\n    function getNumberOfVotes() public view returns (uint256) {\n        return election.voters.length;\n    }\n\n    // get the status of the vote\n    function getBallotStatus() public view returns (string memory) {\n        if (votingState == VotingState.KEY_GENERATION) {\n            return 'KEY_GENERATION';\n        }\n\n        if (votingState == VotingState.VOTING) {\n            return 'VOTING';\n        }\n\n        if (votingState == VotingState.TALLYING) {\n            return 'TALLYING';\n        }\n\n        if (votingState == VotingState.RESULT) {\n            return 'RESULT';\n        }\n    }\n\n    // get the total number of decrypted shares\n    function getNrOfDecryptedShares() public view returns (uint256) {\n        return election.decryptedShareWallet.length;\n    }\n\n    // get a decrypted share at a specific index\n    function getDecryptedShare(uint256 idx) public view returns (uint256) {\n        address addr = election.decryptedShareWallet[idx];\n        return election.decryptedShareMapping[addr].share;\n    }\n\n    // get vote result\n    function getVoteResult() public view returns (uint256) {\n        // require(votingState == VotingState.RESULT, 'The contract needs to be in state: RESULT.');\n        return election.yesVotes;\n    }\n}\n",
  "sourcePath": "/home/kevin/coding/dao-voting/provotum-v2/contracts/contracts/FiniteField/Ballot.sol",
  "compiler": {
    "name": "solc",
    "version": "0.5.3+commit.10d17f24.Emscripten.clang"
  },
  "schemaVersion": "3.4.11",
  "updatedAt": "2023-07-07T11:43:59.107Z",
  "devdoc": {
    "methods": {}
  },
  "userdoc": {
    "methods": {}
  }
}