{
  "contractName": "Ballot",
  "abi": [
    {
      "inputs": [
        {
          "internalType": "string",
          "name": "votingQuestion",
          "type": "string"
        },
        {
          "internalType": "uint256",
          "name": "numberOfAuthNodes",
          "type": "uint256"
        },
        {
          "internalType": "address[]",
          "name": "addresses",
          "type": "address[]"
        }
      ],
      "stateMutability": "nonpayable",
      "type": "constructor"
    },
    {
      "inputs": [
        {
          "internalType": "uint256",
          "name": "shares",
          "type": "uint256"
        },
        {
          "internalType": "uint256",
          "name": "authorities",
          "type": "uint256"
        }
      ],
      "name": "InvalidSealerKeyNumber",
      "type": "error"
    },
    {
      "inputs": [],
      "name": "SealerSubmitted",
      "type": "error"
    },
    {
      "anonymous": false,
      "inputs": [
        {
          "indexed": true,
          "internalType": "address",
          "name": "from",
          "type": "address"
        },
        {
          "indexed": false,
          "internalType": "bool",
          "name": "success",
          "type": "bool"
        },
        {
          "indexed": false,
          "internalType": "string",
          "name": "reason",
          "type": "string"
        }
      ],
      "name": "SystemStatusEvent",
      "type": "event"
    },
    {
      "anonymous": false,
      "inputs": [
        {
          "indexed": true,
          "internalType": "address",
          "name": "from",
          "type": "address"
        },
        {
          "indexed": false,
          "internalType": "bool",
          "name": "success",
          "type": "bool"
        },
        {
          "indexed": false,
          "internalType": "string",
          "name": "reason",
          "type": "string"
        }
      ],
      "name": "VoteStatusEvent",
      "type": "event"
    },
    {
      "inputs": [],
      "name": "owner",
      "outputs": [
        {
          "internalType": "address",
          "name": "",
          "type": "address"
        }
      ],
      "stateMutability": "view",
      "type": "function"
    },
    {
      "inputs": [
        {
          "internalType": "uint256[3]",
          "name": "params",
          "type": "uint256[3]"
        }
      ],
      "name": "setParameters",
      "outputs": [],
      "stateMutability": "nonpayable",
      "type": "function"
    },
    {
      "inputs": [],
      "name": "generatePublicKey",
      "outputs": [],
      "stateMutability": "nonpayable",
      "type": "function"
    },
    {
      "inputs": [],
      "name": "openBallot",
      "outputs": [],
      "stateMutability": "nonpayable",
      "type": "function"
    },
    {
      "inputs": [],
      "name": "closeBallot",
      "outputs": [],
      "stateMutability": "nonpayable",
      "type": "function"
    },
    {
      "inputs": [],
      "name": "combineDecryptedShares",
      "outputs": [],
      "stateMutability": "nonpayable",
      "type": "function"
    },
    {
      "inputs": [
        {
          "internalType": "uint256",
          "name": "key",
          "type": "uint256"
        },
        {
          "internalType": "uint256",
          "name": "proof_c",
          "type": "uint256"
        },
        {
          "internalType": "uint256",
          "name": "proof_d",
          "type": "uint256"
        }
      ],
      "name": "submitPublicKeyShare",
      "outputs": [
        {
          "internalType": "bool",
          "name": "",
          "type": "bool"
        },
        {
          "internalType": "string",
          "name": "",
          "type": "string"
        }
      ],
      "stateMutability": "nonpayable",
      "type": "function"
    },
    {
      "inputs": [
        {
          "internalType": "uint256",
          "name": "share",
          "type": "uint256"
        },
        {
          "internalType": "uint256",
          "name": "a",
          "type": "uint256"
        },
        {
          "internalType": "uint256",
          "name": "b",
          "type": "uint256"
        },
        {
          "internalType": "uint256",
          "name": "a1",
          "type": "uint256"
        },
        {
          "internalType": "uint256",
          "name": "b1",
          "type": "uint256"
        },
        {
          "internalType": "uint256",
          "name": "d",
          "type": "uint256"
        },
        {
          "internalType": "uint256",
          "name": "f",
          "type": "uint256"
        }
      ],
      "name": "submitDecryptedShare",
      "outputs": [
        {
          "internalType": "bool",
          "name": "",
          "type": "bool"
        },
        {
          "internalType": "string",
          "name": "",
          "type": "string"
        }
      ],
      "stateMutability": "nonpayable",
      "type": "function"
    },
    {
      "inputs": [
        {
          "internalType": "uint256[2]",
          "name": "cipher",
          "type": "uint256[2]"
        },
        {
          "internalType": "uint256[2]",
          "name": "a",
          "type": "uint256[2]"
        },
        {
          "internalType": "uint256[2]",
          "name": "b",
          "type": "uint256[2]"
        },
        {
          "internalType": "uint256[2]",
          "name": "c",
          "type": "uint256[2]"
        },
        {
          "internalType": "uint256[2]",
          "name": "f",
          "type": "uint256[2]"
        }
      ],
      "name": "vote",
      "outputs": [
        {
          "internalType": "bool",
          "name": "",
          "type": "bool"
        },
        {
          "internalType": "string",
          "name": "",
          "type": "string"
        }
      ],
      "stateMutability": "nonpayable",
      "type": "function"
    },
    {
      "inputs": [],
      "name": "getVotingQuestion",
      "outputs": [
        {
          "internalType": "string",
          "name": "",
          "type": "string"
        }
      ],
      "stateMutability": "view",
      "type": "function"
    },
    {
      "inputs": [],
      "name": "getParameters",
      "outputs": [
        {
          "internalType": "uint256[3]",
          "name": "",
          "type": "uint256[3]"
        }
      ],
      "stateMutability": "view",
      "type": "function"
    },
    {
      "inputs": [],
      "name": "getNrOfPublicKeyShares",
      "outputs": [
        {
          "internalType": "uint256",
          "name": "",
          "type": "uint256"
        }
      ],
      "stateMutability": "view",
      "type": "function"
    },
    {
      "inputs": [],
      "name": "getPublicKeyShares",
      "outputs": [
        {
          "internalType": "address[]",
          "name": "",
          "type": "address[]"
        }
      ],
      "stateMutability": "view",
      "type": "function"
    },
    {
      "inputs": [],
      "name": "getPublicKey",
      "outputs": [
        {
          "internalType": "uint256",
          "name": "",
          "type": "uint256"
        }
      ],
      "stateMutability": "view",
      "type": "function"
    },
    {
      "inputs": [
        {
          "internalType": "uint256",
          "name": "idx",
          "type": "uint256"
        }
      ],
      "name": "getVote",
      "outputs": [
        {
          "internalType": "uint256",
          "name": "",
          "type": "uint256"
        },
        {
          "internalType": "uint256",
          "name": "",
          "type": "uint256"
        }
      ],
      "stateMutability": "view",
      "type": "function"
    },
    {
      "inputs": [],
      "name": "getNumberOfVotes",
      "outputs": [
        {
          "internalType": "uint256",
          "name": "",
          "type": "uint256"
        }
      ],
      "stateMutability": "view",
      "type": "function"
    },
    {
      "inputs": [],
      "name": "getBallotStatus",
      "outputs": [
        {
          "internalType": "string",
          "name": "",
          "type": "string"
        }
      ],
      "stateMutability": "view",
      "type": "function"
    },
    {
      "inputs": [],
      "name": "getNrOfDecryptedShares",
      "outputs": [
        {
          "internalType": "uint256",
          "name": "",
          "type": "uint256"
        }
      ],
      "stateMutability": "view",
      "type": "function"
    },
    {
      "inputs": [
        {
          "internalType": "uint256",
          "name": "idx",
          "type": "uint256"
        }
      ],
      "name": "getDecryptedShare",
      "outputs": [
        {
          "internalType": "uint256",
          "name": "",
          "type": "uint256"
        }
      ],
      "stateMutability": "view",
      "type": "function"
    },
    {
      "inputs": [],
      "name": "getVoteResult",
      "outputs": [
        {
          "internalType": "uint256",
          "name": "",
          "type": "uint256"
        }
      ],
      "stateMutability": "view",
      "type": "function"
    }
  ],
  "bytecode": "0x60806040526000805460ff191690556012805462010000600160b01b0319163362010000021790553480156200003457600080fd5b50604051620040a6380380620040a6833981016040819052620000579162000340565b604051620000659062000178565b604051809103906000f08015801562000082573d6000803e3d6000fd5b50600060016101000a8154816001600160a01b0302191690836001600160a01b03160217905550604051620000b79062000186565b604051809103906000f080158015620000d4573d6000803e3d6000fd5b50600180546001600160a01b0319166001600160a01b0392909216919091179055604051620001039062000194565b604051809103906000f08015801562000120573d6000803e3d6000fd5b50600280546001600160a01b0319166001600160a01b0392909216919091179055825162000156906007906020860190620001a2565b5080516200016c90601390602084019062000231565b505060145550620004ad565b610b61806200280c83390190565b6106d5806200336d83390190565b6106648062003a4283390190565b828054620001b0906200045a565b90600052602060002090601f016020900481019282620001d457600085556200021f565b82601f10620001ef57805160ff19168380011785556200021f565b828001600101855582156200021f579182015b828111156200021f57825182559160200191906001019062000202565b506200022d92915062000289565b5090565b8280548282559060005260206000209081019282156200021f579160200282015b828111156200021f57825182546001600160a01b0319166001600160a01b0390911617825560209092019160019091019062000252565b5b808211156200022d57600081556001016200028a565b600082601f830112620002b1578081fd5b815160206001600160401b03821115620002cf57620002cf62000497565b8160051b620002e082820162000427565b838152828101908684018388018501891015620002fb578687fd5b8693505b85841015620003345780516001600160a01b03811681146200031f578788fd5b835260019390930192918401918401620002ff565b50979650505050505050565b60008060006060848603121562000355578283fd5b83516001600160401b03808211156200036c578485fd5b818601915086601f83011262000380578485fd5b81518181111562000395576200039562000497565b6020620003ab601f8301601f1916820162000427565b8281528982848701011115620003bf578788fd5b875b83811015620003de578581018301518282018401528201620003c1565b83811115620003ef57888385840101525b509088015160408901519197509550925050808211156200040e578283fd5b506200041d86828701620002a0565b9150509250925092565b604051601f8201601f191681016001600160401b038111828210171562000452576200045262000497565b604052919050565b600181811c908216806200046f57607f821691505b602082108114156200049157634e487b7160e01b600052602260045260246000fd5b50919050565b634e487b7160e01b600052604160045260246000fd5b61234f80620004bd6000396000f3fe608060405234801561001057600080fd5b506004361061016c5760003560e01c806373e867fb116100cd578063a97b8b4d11610081578063bb1f683d11610066578063bb1f683d146102a9578063cee024dc146102bc578063df2252b9146102c457600080fd5b8063a97b8b4d14610299578063b23d422d146102a157600080fd5b80638da5cb5b116100b25780638da5cb5b1461024b578063a10cfae51461027c578063a5ea11da1461028457600080fd5b806373e867fb1461023b5780638742fc3b1461024357600080fd5b8063528da2eb116101245780635b71c523116101095780635b71c523146101f2578063689778c31461021357806368cdfda51461022657600080fd5b8063528da2eb146101b55780635a55c1f0146101ca57600080fd5b80632e334452116101555780632e3344521461019b57806334507556146101a35780634d0013ac146101ad57600080fd5b80631536f616146101715780631f50c0ab14610188575b600080fd5b600c545b6040519081526020015b60405180910390f35b610175610196366004612079565b6102d7565b610175610326565b6101ab610338565b005b6101ab610560565b6101bd610601565b60405161017f919061216a565b6101dd6101d8366004612079565b610666565b6040805192835260208301919091520161017f565b6102056102003660046120d4565b6106e4565b60405161017f929190612245565b6102056102213660046120a9565b610a72565b61022e610e29565b60405161017f9190612268565b600e54610175565b610175610eb5565b601254610264906201000090046001600160a01b031681565b6040516001600160a01b03909116815260200161017f565b61022e610f58565b61028c6110ed565b60405161017f9190612214565b6101ab611122565b6101ab6111c2565b6102056102b7366004611fc1565b611616565b600954610175565b6101ab6102d236600461202c565b611b36565b6000806007800183815481106102fd57634e487b7160e01b600052603260045260246000fd5b60009182526020808320909101546001600160a01b03168252600d905260409020549392505050565b6000610330611c61565b506006545b90565b610340611cc0565b601254610100900460ff161561039d5760405162461bcd60e51b815260206004820152601e60248201527f546865207075626c6963206b657920697320616c7265616479207365742e000060448201526064015b60405180910390fd5b601454600c54146103e957600c546014546040517fc345a82300000000000000000000000000000000000000000000000000000000815260048101929092526024820152604401610394565b6000600760050160008154811061041057634e487b7160e01b600052603260045260246000fd5b60009182526020808320909101546001600160a01b0316808352600b90915260409091205490915060015b600c5481101561053f5760006007600501828154811061046b57634e487b7160e01b600052603260045260246000fd5b6000918252602080832091909101546001600160a01b0316808352600b90915260409182902054600354925163730b2acf60e11b81526004810187905260248101919091526044810192909252915073__ModuloMathLib_________________________9063e616559e9060640160206040518083038186803b1580156104f157600080fd5b505af4158015610505573d6000803e3d6000fd5b505050506040513d601f19601f820116820180604052508101906105299190612091565b9250508080610537906122c8565b91505061043b565b5060068190556012805461ff00191661010017905561055c611d46565b5050565b610568611cc0565b610570611c61565b610578611e64565b6000805460ff16600381111561059e57634e487b7160e01b600052602160045260246000fd5b146105eb5760405162461bcd60e51b815260206004820152601a60248201527f4e656564207374617465204b45595f47454e45524154494f4e2e0000000000006044820152606401610394565b600080546001919060ff191682805b0217905550565b6060600760050180548060200260200160405190810160405280929190818152602001828054801561065c57602002820191906000526020600020905b81546001600160a01b0316815260019091019060200180831161063e575b5050505050905090565b6000806007600201838154811061068d57634e487b7160e01b600052603260045260246000fd5b90600052602060002090600b020160010160000154600760020184815481106106c657634e487b7160e01b600052603260045260246000fd5b90600052602060002090600b02016001016001015491509150915091565b60006060600260005460ff16600381111561070f57634e487b7160e01b600052602160045260246000fd5b146107825760405162461bcd60e51b815260206004820152602c60248201527f54686520636f6e7472616374206e6565647320746f20626520696e207374617460448201527f653a2054414c4c59494e472e00000000000000000000000000000000000000006064820152608401610394565b336000818152600b6020526040908190205460015491517fb6b81a26000000000000000000000000000000000000000000000000000000008152600481018c9052602481018b9052604481018a9052606481018990526084810188905260a4810187905260c481019390935260e48301819052916001600160a01b039091169063b6b81a26906101040160206040518083038186803b15801561082457600080fd5b505afa158015610838573d6000803e3d6000fd5b505050506040513d601f19601f8201168201806040525081019061085c9190612052565b61086557600080fd5b6000805b600e548110156108ca57600e80543391908390811061089857634e487b7160e01b600052603260045260246000fd5b6000918252602090912001546001600160a01b031614156108b857600191505b806108c2816122c8565b915050610869565b50600060405180604001604052808d815260200160405180608001604052808c81526020018b81526020018a81526020018981525081525090508161095957600e80546001810182556000919091527fbb7b4a454dc3493923482f07822329ed19e8244eff582cc204f8554c3620c3fd01805473ffffffffffffffffffffffffffffffffffffffff1916331790555b336000818152600d602090815260409182902084518155818501518051600180840191909155818401516002840155818501516003840155606090910151600490920191909155825180840184528f81529091018d9052600f8e905560108d905590517f13dd6fe92e00365cc4b5b06c43c90e02579bac92daf813dcc92257094835f91491610a22919015158152604060208201819052601c908201527f446563727970746564536861726550726f6f6620616363657074656400000000606082015260800190565b60405180910390a2505060408051808201909152601181527f53756d70726f6f66206163636570746564000000000000000000000000000000602082015260019b909a5098505050505050505050565b600060608160005460ff166003811115610a9c57634e487b7160e01b600052602160045260246000fd5b14610ae95760405162461bcd60e51b815260206004820152601a60248201527f4e656564207374617465204b45595f47454e45524154494f4e2e0000000000006044820152606401610394565b601254610100900460ff1615610b8d5760405162461bcd60e51b815260206004820152604960248201527f5075626c6963206b6579207368617265732063616e206f6e6c7920626520737560448201527f626d697474656420696620746865207075626c6963206b6579206973206e6f7460648201527f20796574207365742e0000000000000000000000000000000000000000000000608482015260a401610394565b6002546040517fb0caa8290000000000000000000000000000000000000000000000000000000081526004810186905260248101859052604481018790523360648201526001600160a01b039091169063b0caa8299060840160206040518083038186803b158015610bfe57600080fd5b505afa158015610c12573d6000803e3d6000fd5b505050506040513d601f19601f82011682018060405250810190610c369190612052565b610ca75760405162461bcd60e51b8152602060048201526024808201527f4b65792047656e65726174696f6e2050726f6f66206973206e6f7420636f727260448201527f6563742e000000000000000000000000000000000000000000000000000000006064820152608401610394565b6000805b600c54811015610d3d57600c805433919083908110610cda57634e487b7160e01b600052603260045260246000fd5b6000918252602090912001546001600160a01b03161415610d2b57600191506040517f63aba7ed00000000000000000000000000000000000000000000000000000000815260040160405180910390fd5b80610d35816122c8565b915050610cab565b506040805180820182528781528151808301909252868252602082810187905281019190915281610db857600c80546001810182556000919091527fdf6966c971051c3d54ec59162606531493a51404a002842f56009d7e5cf4a8c701805473ffffffffffffffffffffffffffffffffffffffff1916331790555b336000908152600b602090815260409182902083518155928101518051600180860191909155908201516002909401939093558151808301909252601e82527f4b65792047656e65726174696f6e2050726f6f662069732076616c69642e0000908201529097909650945050505050565b606060076000018054610e3b90612293565b80601f0160208091040260200160405190810160405280929190818152602001828054610e6790612293565b801561065c5780601f10610e895761010080835404028352916020019161065c565b820191906000526020600020905b815481529060010190602001808311610e9757509395945050505050565b6000600360005460ff166003811115610ede57634e487b7160e01b600052602160045260246000fd5b14610f515760405162461bcd60e51b815260206004820152602a60248201527f54686520636f6e7472616374206e6565647320746f20626520696e207374617460448201527f653a20524553554c542e000000000000000000000000000000000000000000006064820152608401610394565b5060115490565b60606000805460ff166003811115610f8057634e487b7160e01b600052602160045260246000fd5b1415610fbe575060408051808201909152600e81527f4b45595f47454e45524154494f4e000000000000000000000000000000000000602082015290565b600160005460ff166003811115610fe557634e487b7160e01b600052602160045260246000fd5b1415611023575060408051808201909152600681527f564f54494e470000000000000000000000000000000000000000000000000000602082015290565b600260005460ff16600381111561104a57634e487b7160e01b600052602160045260246000fd5b1415611088575060408051808201909152600881527f54414c4c59494e47000000000000000000000000000000000000000000000000602082015290565b600360005460ff1660038111156110af57634e487b7160e01b600052602160045260246000fd5b1415610335575060408051808201909152600681527f524553554c540000000000000000000000000000000000000000000000000000602082015290565b6110f5611f39565b6110fd611e64565b5060408051606081018252600354815260045460208201526005549181019190915290565b61112a611cc0565b611132611c61565b61113a611e64565b600160005460ff16600381111561116157634e487b7160e01b600052602160045260246000fd5b146111ae5760405162461bcd60e51b815260206004820152601260248201527f4e65656420737461746520564f54494e472e00000000000000000000000000006044820152606401610394565b600080546002919060ff19166001836105fa565b600260005460ff1660038111156111e957634e487b7160e01b600052602160045260246000fd5b146112365760405162461bcd60e51b815260206004820152601460248201527f4e6565642073746174652054414c4c59494e472e0000000000000000000000006044820152606401610394565b601454600e54146112895760405162461bcd60e51b815260206004820152601f60248201527f4e72206f662073686172657320213d3d206e72206f66207365616c6572732e006044820152606401610394565b6000600780016000815481106112af57634e487b7160e01b600052603260045260246000fd5b60009182526020808320909101546001600160a01b0316808352600d90915260409091205490915060015b600e548110156113dd57600060078001828154811061130957634e487b7160e01b600052603260045260246000fd5b6000918252602080832091909101546001600160a01b0316808352600d90915260409182902054600354925163730b2acf60e11b81526004810187905260248101919091526044810192909252915073__ModuloMathLib_________________________9063e616559e9060640160206040518083038186803b15801561138f57600080fd5b505af41580156113a3573d6000803e3d6000fd5b505050506040513d601f19601f820116820180604052508101906113c79190612091565b92505080806113d5906122c8565b9150506112da565b506010546003546040517fa9008ad600000000000000000000000000000000000000000000000000000000815260009273__ModuloMathLib_________________________9263e616559e92849163a9008ad691611448918991600401918252602082015260400190565b60206040518083038186803b15801561146057600080fd5b505af4158015611474573d6000803e3d6000fd5b505050506040513d601f19601f820116820180604052508101906114989190612091565b60035460405160e085901b7fffffffff0000000000000000000000000000000000000000000000000000000016815260048101939093526024830191909152604482015260640160206040518083038186803b1580156114f757600080fd5b505af415801561150b573d6000803e3d6000fd5b505050506040513d601f19601f8201168201806040525081019061152f9190612091565b6005546003549192506000915b6040517fedbe2fbd000000000000000000000000000000000000000000000000000000008152600481018390526024810184905260448101829052849073__ModuloMathLib_________________________9063edbe2fbd9060640160206040518083038186803b1580156115b057600080fd5b505af41580156115c4573d6000803e3d6000fd5b505050506040513d601f19601f820116820180604052508101906115e89190612091565b146115ff576115f883600161227b565b925061153c565b505060115550506000805460ff1916600317905550565b60006060600160005460ff16600381111561164157634e487b7160e01b600052602160045260246000fd5b1461168e5760405162461bcd60e51b815260206004820152600e60248201527f566f7465206e6f74206f70656e2e0000000000000000000000000000000000006044820152606401610394565b61169733611ebb565b6116e35760405162461bcd60e51b815260206004820152601c60248201527f41646472657373206e6f7420616c6c6f77656420746f20766f74652e000000006044820152606401610394565b336000908152600a602052604090205460ff16156117435760405162461bcd60e51b815260206004820152601460248201527f566f74657220616c726561647920766f7465642e0000000000000000000000006044820152606401610394565b6000546040517f2817a98f0000000000000000000000000000000000000000000000000000000081526101009091046001600160a01b031690632817a98f9061179a908a908a908a908a908a9033906004016121b7565b60206040518083038186803b1580156117b257600080fd5b505afa1580156117c6573d6000803e3d6000fd5b505050506040513d601f19601f820116820180604052508101906117ea9190612052565b6118365760405162461bcd60e51b815260206004820152601860248201527f566f74652050726f6f66206e6f742061636365707465642e00000000000000006044820152606401610394565b6040805160c081018252600091819060808201908a906002908390839080828437600092019190915250505081526040805180820182526020909201919089906002908390839080828437600092019190915250505081526040805180820182526020909201919088906002908390839080828437600092019190915250505081526040805180820182526020909201919087906002908390839080828437600092018290525092909352506040805180820182528c3581526020808e013581830152825160608101845233815280820183815293810187815260098054600181018255965281517f6e1540171b6c0c960b71a7020d9f60077f6af931a8bbf590da0223dacf75c7af600b909702968701805473ffffffffffffffffffffffffffffffffffffffff19166001600160a01b03909216919091178155945180517f6e1540171b6c0c960b71a7020d9f60077f6af931a8bbf590da0223dacf75c7b0880155909201517f6e1540171b6c0c960b71a7020d9f60077f6af931a8bbf590da0223dacf75c7b186015590518051969750919590945084937f6e1540171b6c0c960b71a7020d9f60077f6af931a8bbf590da0223dacf75c7b201906119ff9082906002611f57565b506020820151611a159060028084019190611f57565b506040820151611a2b9060048301906002611f57565b506060820151611a419060068301906002611f57565b5050505050600160076001016000828254611a5c919061227b565b9091555050336000818152600a602052604090819020805460ff1916600190811790915590517f13dd6fe92e00365cc4b5b06c43c90e02579bac92daf813dcc92257094835f91491611ae89190151581526040602082018190526011908201527f566f746520776173206163636570746564000000000000000000000000000000606082015260800190565b60405180910390a2505060408051808201909152601181527f566f74652077617320616363657074656400000000000000000000000000000060208201526001999098509650505050505050565b611b3e611cc0565b60125460ff1615611b915760405162461bcd60e51b815260206004820152601d60248201527f53797374656d207061726d657465727320616c726561647920736574210000006044820152606401610394565b6040805160608101825282358082526020808501359083018190528484013592840183905260038290556004818155600584905560025485517f80d85911000000000000000000000000000000000000000000000000000000008152918201939093526024810191909152604481019290925291516001600160a01b03909216916380d859119160648082019260009290919082900301818387803b158015611c3957600080fd5b505af1158015611c4d573d6000803e3d6000fd5b50506012805460ff19166001179055505050565b60125460ff610100909104161515600114611cbe5760405162461bcd60e51b815260206004820152601260248201527f5075626c6963204b6579206e6f207365742e00000000000000000000000000006044820152606401610394565b565b6012546201000090046001600160a01b03163314611cbe5760405162461bcd60e51b815260206004820152602260248201527f4f6e6c79206f776e65722063616e2063616c6c20746869732066756e6374696f60448201527f6e2e0000000000000000000000000000000000000000000000000000000000006064820152608401610394565b611d4e611cc0565b611d56611c61565b611d5e611e64565b60005460035460048054600554600654604051631828b69160e21b8152938401949094526024830191909152604482015260648101919091526101009091046001600160a01b0316906360a2da4490608401600060405180830381600087803b158015611dca57600080fd5b505af1158015611dde573d6000803e3d6000fd5b505060015460035460048054600554600654604051631828b69160e21b8152938401949094526024830191909152604482015260648101919091526001600160a01b0390911692506360a2da449150608401600060405180830381600087803b158015611e4a57600080fd5b505af1158015611e5e573d6000803e3d6000fd5b50505050565b60125460ff161515600114611cbe5760405162461bcd60e51b815260206004820152601a60248201527f53797374656d20506172616d6574657273206e6f74207365742e0000000000006044820152606401610394565b6000805b60135460ff82161015611f3057826001600160a01b031660138260ff1681548110611efa57634e487b7160e01b600052603260045260246000fd5b6000918252602090912001546001600160a01b03161415611f1e5750600092915050565b80611f28816122e3565b915050611ebf565b50600192915050565b60405180606001604052806003906020820280368337509192915050565b8260028101928215611f85579160200282015b82811115611f85578251825591602001919060010190611f6a565b50611f91929150611f95565b5090565b5b80821115611f915760008155600101611f96565b8060408101831015611fbb57600080fd5b92915050565b60008060008060006101408688031215611fd9578081fd5b611fe38787611faa565b9450611ff28760408801611faa565b93506120018760808801611faa565b92506120108760c08801611faa565b9150612020876101008801611faa565b90509295509295909350565b60006060828403121561203d578081fd5b8260608301111561204c578081fd5b50919050565b600060208284031215612063578081fd5b81518015158114612072578182fd5b9392505050565b60006020828403121561208a578081fd5b5035919050565b6000602082840312156120a2578081fd5b5051919050565b6000806000606084860312156120bd578283fd5b505081359360208301359350604090920135919050565b600080600080600080600060e0888a0312156120ee578182fd5b505085359760208701359750604087013596606081013596506080810135955060a0810135945060c0013592509050565b60008151808452815b8181101561214457602081850181015186830182015201612128565b818111156121555782602083870101525b50601f01601f19169290920160200192915050565b6020808252825182820181905260009190848201906040850190845b818110156121ab5783516001600160a01b031683529284019291840191600101612186565b50909695505050505050565b61016081016040808984378083016000815281898237506080830160008152818882375060c083016000815281878237506101008301600081528186823750506001600160a01b0392909216610140919091015295945050505050565b60608101818360005b600381101561223c57815183526020928301929091019060010161221d565b50505092915050565b8215158152604060208201526000612260604083018461211f565b949350505050565b602081526000612072602083018461211f565b6000821982111561228e5761228e612303565b500190565b600181811c908216806122a757607f821691505b6020821081141561204c57634e487b7160e01b600052602260045260246000fd5b60006000198214156122dc576122dc612303565b5060010190565b600060ff821660ff8114156122fa576122fa612303565b60010192915050565b634e487b7160e01b600052601160045260246000fdfea26469706673582212204f132babb6a274a59d5dd3d425eeb664dd04c4135e2002146a9dccbdca34e42d64736f6c63430008040033608060405234801561001057600080fd5b506040805160808101825260008082526020820181905291810182905260600181905280805560018190556002819055600355610b0f806100526000396000f3fe6080604052600436106100295760003560e01c80632817a98f1461002e57806360a2da4414610062575b600080fd5b34801561003a57600080fd5b5061004e6100493660046109d9565b610086565b604051901515815260200160405180910390f35b610084610070366004610a88565b600093909355600191909155600255600355565b005b6040805160a08101825287815260208101879052908101859052606081018490526080810183905285518451845189516000949385936100ca939192909190610228565b9050600061012183602001516001600281106100f657634e487b7160e01b600052603260045260246000fd5b602002015160808501516001602002015160608601516001602002015186516000602002015161040d565b90506000610178846040015160006002811061014d57634e487b7160e01b600052603260045260246000fd5b6020020151606086015160006020020151608087015160006020020151875160016020020151610500565b905060006101cf85604001516001600281106101a457634e487b7160e01b600052603260045260246000fd5b602002015160608701516001602002015160808801516001602002015188516001602002015161054f565b905060006101f086602001518760400151886060015189600001518c6107f9565b90508480156101fc5750835b80156102055750825b801561020e5750815b80156102175750805b9d9c50505050505050505050505050565b6002546000805460405163edbe2fbd60e01b8152600481019390935260248301859052604483015290819073__ModuloMathLib_________________________9063edbe2fbd906064015b60206040518083038186803b15801561028b57600080fd5b505af415801561029f573d6000803e3d6000fd5b505050506040513d601f19601f820116820180604052508101906102c39190610a70565b6000805460405163edbe2fbd60e01b8152600481018790526024810189905260448101919091529192509073__ModuloMathLib_________________________9063e616559e908990839063edbe2fbd906064015b60206040518083038186803b15801561033057600080fd5b505af4158015610344573d6000803e3d6000fd5b505050506040513d601f19601f820116820180604052508101906103689190610a70565b60005460405160e085901b7fffffffff0000000000000000000000000000000000000000000000000000000016815260048101939093526024830191909152604482015260640160206040518083038186803b1580156103c757600080fd5b505af41580156103db573d6000803e3d6000fd5b505050506040513d601f19601f820116820180604052508101906103ff9190610a70565b919091149695505050505050565b6002546000805460405163edbe2fbd60e01b8152600481019390935260248301869052604483015290819073__ModuloMathLib_________________________9063edbe2fbd9060640160206040518083038186803b15801561046f57600080fd5b505af4158015610483573d6000803e3d6000fd5b505050506040513d601f19601f820116820180604052508101906104a79190610a70565b6000805460405163edbe2fbd60e01b8152600481018790526024810188905260448101919091529192509073__ModuloMathLib_________________________9063e616559e908990839063edbe2fbd90606401610318565b6003546000805460405163edbe2fbd60e01b8152600481019390935260248301859052604483015290819073__ModuloMathLib_________________________9063edbe2fbd90606401610273565b6003546000805460405163edbe2fbd60e01b8152600481019390935260248301859052604483015290819073__ModuloMathLib_________________________9063edbe2fbd9060640160206040518083038186803b1580156105b157600080fd5b505af41580156105c5573d6000803e3d6000fd5b505050506040513d601f19601f820116820180604052508101906105e99190610a70565b600254600080546040517f6378bd6c000000000000000000000000000000000000000000000000000000008152600481018890526024810193909352604483015291925073__ModuloMathLib_________________________90636378bd6c9060640160206040518083038186803b15801561066457600080fd5b505af4158015610678573d6000803e3d6000fd5b505050506040513d601f19601f8201168201806040525081019061069c9190610a70565b6000805460405163edbe2fbd60e01b815260048101849052602481018a905260448101919091529192509073__ModuloMathLib_________________________9063edbe2fbd9060640160206040518083038186803b1580156106fe57600080fd5b505af4158015610712573d6000803e3d6000fd5b505050506040513d601f19601f820116820180604052508101906107369190610a70565b600080546040517fe616559e000000000000000000000000000000000000000000000000000000008152600481018c90526024810184905260448101919091529192509073__ModuloMathLib_________________________9063e616559e9060640160206040518083038186803b1580156107b157600080fd5b505af41580156107c5573d6000803e3d6000fd5b505050506040513d601f19601f820116820180604052508101906107e99190610a70565b9390931498975050505050505050565b602083015183516001546040517fa2f0dc8d000000000000000000000000000000000000000000000000000000008152600481019390935260248301919091526044820152600090819073__ModuloMathLib_________________________9063a2f0dc8d9060640160206040518083038186803b15801561087a57600080fd5b505af415801561088e573d6000803e3d6000fd5b505050506040513d601f19601f820116820180604052508101906108b29190610a70565b84516020808701518a518a518c8401518c8501516040805160608d901b7fffffffffffffffffffffffffffffffffffffffff0000000000000000000000001681890152603481019890985260548801959095526074870193909352609486019190915260b485015260d4808501919091528151808503909101815260f4909301905281519101206001549192509061094a9082610ab9565b909114979650505050505050565b600082601f830112610968578081fd5b6040516040810181811067ffffffffffffffff8211171561099757634e487b7160e01b83526041600452602483fd5b80604052508083856040860111156109ad578384fd5b835b60028110156109ce5781358352602092830192909101906001016109af565b509195945050505050565b60008060008060008061016087890312156109f2578182fd5b6109fc8888610958565b9550610a0b8860408901610958565b9450610a1a8860808901610958565b9350610a298860c08901610958565b9250610a39886101008901610958565b915061014087013573ffffffffffffffffffffffffffffffffffffffff81168114610a62578182fd5b809150509295509295509295565b600060208284031215610a81578081fd5b5051919050565b60008060008060808587031215610a9d578384fd5b5050823594602084013594506040840135936060013592509050565b600082610ad457634e487b7160e01b81526012600452602481fd5b50069056fea264697066735822122085fe7fd7c0d881ed01fa9f8d1d6651b8009c3f14cc4eaca015103a8eaae3b9c964736f6c63430008040033608060405234801561001057600080fd5b506040805160808101825260008082526020820181905291810182905260600181905280805560018190556002819055600355610683806100526000396000f3fe6080604052600436106100295760003560e01c806360a2da441461002e578063b6b81a2614610052575b600080fd5b61005061003c366004610562565b600093909355600191909155600255600355565b005b34801561005e57600080fd5b5061007261006d366004610593565b610086565b604051901515815260200160405180910390f35b6040805160c08101825289815260208101899052908101879052606081018690526080810185905260a081018490526001546000919082906100d1908c908c908c908c908a906104c7565b825160a08401516000805460405163edbe2fbd60e01b815260048101949094526024840192909252604483019190915291925073__ModuloMathLib_________________________9063edbe2fbd9060640160206040518083038186803b15801561013b57600080fd5b505af415801561014f573d6000803e3d6000fd5b505050506040513d601f19601f82011682018060405250810190610173919061054a565b604084810151608086015160008054935163edbe2fbd60e01b81526004810192909252602482018790526044820193909352929350909173__ModuloMathLib_________________________9163e616559e91839063edbe2fbd9060640160206040518083038186803b1580156101e957600080fd5b505af41580156101fd573d6000803e3d6000fd5b505050506040513d601f19601f82011682018060405250810190610221919061054a565b60005460405160e085901b7fffffffff0000000000000000000000000000000000000000000000000000000016815260048101939093526024830191909152604482015260640160206040518083038186803b15801561028057600080fd5b505af4158015610294573d6000803e3d6000fd5b505050506040513d601f19601f820116820180604052508101906102b8919061054a565b60025460a08601516000805460405163edbe2fbd60e01b815294955086861494919373__ModuloMathLib_________________________9363edbe2fbd9361031493906004019283526020830191909152604082015260600190565b60206040518083038186803b15801561032c57600080fd5b505af4158015610340573d6000803e3d6000fd5b505050506040513d601f19601f82011682018060405250810190610364919061054a565b60608701516000805460405163edbe2fbd60e01b8152600481018d9052602481018a905260448101919091529293509173__ModuloMathLib_________________________9163e616559e91839063edbe2fbd9060640160206040518083038186803b1580156103d357600080fd5b505af41580156103e7573d6000803e3d6000fd5b505050506040513d601f19601f8201168201806040525081019061040b919061054a565b60005460405160e085901b7fffffffff0000000000000000000000000000000000000000000000000000000016815260048101939093526024830191909152604482015260640160206040518083038186803b15801561046a57600080fd5b505af415801561047e573d6000803e3d6000fd5b505050506040513d601f19601f820116820180604052508101906104a2919061054a565b90508181148380156104b15750805b9850505050505050505098975050505050505050565b6040517fffffffffffffffffffffffffffffffffffffffff000000000000000000000000606084901b16602082015260348101879052605481018690526074810185905260948101849052600090819060b40160408051601f198184030181529190528051602090910120905061053e8382610614565b98975050505050505050565b60006020828403121561055b578081fd5b5051919050565b60008060008060808587031215610577578283fd5b5050823594602084013594506040840135936060013592509050565b600080600080600080600080610100898b0312156105af578384fd5b883597506020890135965060408901359550606089013594506080890135935060a0890135925060c089013573ffffffffffffffffffffffffffffffffffffffff811681146105fc578283fd5b8092505060e089013590509295985092959890939650565b600082610648577f4e487b710000000000000000000000000000000000000000000000000000000081526012600452602481fd5b50069056fea26469706673582212201204f131e0cf3159ab6d1c6d0124fc704fc69b7d19911cb501b1d92eda4539cd64736f6c63430008040033608060405234801561001057600080fd5b50604080516060810182526000808252602082018190529101819052808055600181905560025561061e806100466000396000f3fe6080604052600436106100295760003560e01c806380d859111461002e578063b0caa8291461004c575b600080fd5b61004a61003c36600461052c565b600092909255600155600255565b005b34801561005857600080fd5b5061006c610067366004610557565b610080565b604051901515815260200160405180910390f35b600080546001546002546040805180820190915288815260208101889052846100ac83868a8c8e6102b7565b905060006100bc85898b856104a1565b8351602085015160405163edbe2fbd60e01b81526004810188905260248101919091526044810189905291925082149060009073__ModuloMathLib_________________________9063edbe2fbd9060640160206040518083038186803b15801561012657600080fd5b505af415801561013a573d6000803e3d6000fd5b505050506040513d601f19601f8201168201806040525081019061015e9190610514565b855160405163edbe2fbd60e01b8152600481018e90526024810191909152604481018a905290915060009073__ModuloMathLib_________________________9063e616559e908790839063edbe2fbd9060640160206040518083038186803b1580156101ca57600080fd5b505af41580156101de573d6000803e3d6000fd5b505050506040513d601f19601f820116820180604052508101906102029190610514565b6040517fffffffff0000000000000000000000000000000000000000000000000000000060e085901b16815260048101929092526024820152604481018c905260640160206040518083038186803b15801561025d57600080fd5b505af4158015610271573d6000803e3d6000fd5b505050506040513d601f19601f820116820180604052508101906102959190610514565b90508181148380156102a45750805b9f9e505050505050505050505050505050565b60405163edbe2fbd60e01b8152600481018690526024810183905260448101859052600090819073__ModuloMathLib_________________________9063edbe2fbd9060640160206040518083038186803b15801561031557600080fd5b505af4158015610329573d6000803e3d6000fd5b505050506040513d601f19601f8201168201806040525081019061034d9190610514565b60405163edbe2fbd60e01b815260048101879052602481018590526044810188905290915060009073__ModuloMathLib_________________________9063edbe2fbd9060640160206040518083038186803b1580156103ac57600080fd5b505af41580156103c0573d6000803e3d6000fd5b505050506040513d601f19601f820116820180604052508101906103e49190610514565b6040517f6378bd6c00000000000000000000000000000000000000000000000000000000815260048101849052602481018290526044810189905290915060009073__ModuloMathLib_________________________90636378bd6c9060640160206040518083038186803b15801561045c57600080fd5b505af4158015610470573d6000803e3d6000fd5b505050506040513d601f19601f820116820180604052508101906104949190610514565b9998505050505050505050565b6040517fffffffffffffffffffffffffffffffffffffffff000000000000000000000000606085901b1660208201526034810183905260548101829052600090819060740160408051601f198184030181529190528051602090910120905061050a86826105af565b9695505050505050565b600060208284031215610525578081fd5b5051919050565b600080600060608486031215610540578182fd5b505081359360208301359350604090920135919050565b6000806000806080858703121561056c578081fd5b843593506020850135925060408501359150606085013573ffffffffffffffffffffffffffffffffffffffff811681146105a4578182fd5b939692955090935050565b6000826105e3577f4e487b710000000000000000000000000000000000000000000000000000000081526012600452602481fd5b50069056fea264697066735822122096e8690daaf18463bf1e94891f69aa73abbf9126c328ada0ae354eba5116e5a264736f6c63430008040033",
  "immutableReferences": {},
  "source": "// pragma solidity ^0.8.4;\npragma solidity ^0.8.4;\n\nimport './VoteProofVerifier.sol';\nimport './SumProofVerifier.sol';\nimport './KeyGenProofVerifier.sol';\nimport './ModuloMathLib.sol';\n\ncontract Ballot {\n    // /////////////////////////////////\n    // libraries\n    // /////////////////////////////////\n    using ModuloMathLib for uint256;\n\n    // /////////////////////////////////\n    // structs\n    // /////////////////////////////////\n    enum VotingState {KEY_GENERATION, VOTING, TALLYING, RESULT}\n\n    // parameters for the elgamal crypto system\n    struct SystemParameters {\n        uint256 p; // prime\n        uint256 q; // prime factor: p = 2*q+1\n        uint256 g; // generator\n    }\n\n    // represents one part of the public key (distributed key generation)\n    // this struct also records a proof along with the public key share\n    struct PublicKeyShare {\n        uint256 share;\n        KeyShareProof keyShareProof;\n    }\n\n    // represents the decryption of all vote-ciphers done by one sealer\n    // each sealer will go through this process and submit it's share\n    // their product will then form the final sum\n    struct DecryptedShare {\n        uint256 share;\n        DecryptedShareProof decryptedShareProof;\n    }\n\n    struct Election {\n        string votingQuestion;\n        uint256 nrOfVoters;\n        Voter[] voters;\n        mapping(address => bool) hasVoted;\n        mapping(address => PublicKeyShare) pubKeyShareMapping;\n        address[] publicKeyShareWallet;\n        mapping(address => DecryptedShare) decryptedShareMapping;\n        address[] decryptedShareWallet;\n        Cipher sumCipher;\n        uint256 yesVotes;\n    }\n\n    struct Voter {\n        address voterAddress;\n        Cipher cipher;\n        VoteProof voteProof;\n    }\n\n    struct Cipher {\n        uint256 a;\n        uint256 b;\n    }\n\n    struct VoteProof {\n        uint256[2] a;\n        uint256[2] b;\n        uint256[2] c;\n        uint256[2] f;\n    }\n\n    struct DecryptedShareProof {\n        uint256 a1;\n        uint256 b1;\n        uint256 d;\n        uint256 f;\n    }\n\n    struct KeyShareProof {\n        uint256 c;\n        uint256 d;\n    }\n\n    // /////////////////////////////////\n    // events\n    // /////////////////////////////////\n    event VoteStatusEvent(address indexed from, bool success, string reason);\n    event SystemStatusEvent(address indexed from, bool success, string reason);\n\n    // /////////////////////////////////\n    // function modifiers\n    // - call internal functions\n    // - otherwise Solidity would duplicate\n    //   and inline the functions, which costs way more gas\n    // /////////////////////////////////\n    modifier onlyOwner {\n        isOwner();\n        _;\n    }\n\n    modifier onlyIfPubKeySet {\n        isPubKeySet();\n        _;\n    }\n\n    modifier onlyIfSysParamsSet {\n        isSysParamsSet();\n        _;\n    }\n\n    function isOwner() internal view {\n        require(msg.sender == owner, 'Only owner can call this function.');\n    }\n\n    function isPubKeySet() internal view {\n        require(IS_PUBKEY_SET == true, 'Public Key no set.');\n    }\n\n    function isSysParamsSet() internal view {\n        require(IS_PARAMETERS_SET == true, 'System Parameters not set.');\n    }\n\n    // /////////////////////////////////\n    // variables\n    // /////////////////////////////////\n    VotingState private votingState = VotingState.KEY_GENERATION;\n\n    VoteProofVerifier private voteVerifier;\n    SumProofVerifier private sumVerifier;\n    KeyGenProofVerifier private keyGenProofVerifier;\n\n    SystemParameters private systemParameters;\n    uint256 private publicKey;\n    Election private election;\n    bool private IS_PARAMETERS_SET;\n    bool private IS_PUBKEY_SET;\n\n    address public owner = msg.sender;\n\n    // array of addresses that are not allowed to vote (authority, sealers and access provider)\n    address[] private priviledgedAddresses;\n\n    // The number of PublicKeyShare needed to create the publicKey (# of authorities)\n    uint256 private NR_OF_AUTHORITY_NODES;\n\n    // /////////////////////////////////\n    // constructor\n    // /////////////////////////////////\n    constructor(string memory votingQuestion, uint256 numberOfAuthNodes, address[] memory addresses) public {\n        voteVerifier = new VoteProofVerifier();\n        sumVerifier = new SumProofVerifier();\n        keyGenProofVerifier = new KeyGenProofVerifier();\n        election.votingQuestion = votingQuestion;\n        priviledgedAddresses = addresses;\n        NR_OF_AUTHORITY_NODES = numberOfAuthNodes;\n    }\n\n    // /////////////////////////////////////////\n    // VOTING AUTHORITY core functions (owner)\n    // /////////////////////////////////////////\n\n    // set the parameters of the elgamal crypto system\n    // can only be done by the owner (authority) and should\n    // be set after contract deployment\n    function setParameters(uint256[3] calldata params) external onlyOwner {\n        require(!IS_PARAMETERS_SET, 'System parmeters already set!');\n        systemParameters = SystemParameters(params[0], params[1], params[2]);\n        keyGenProofVerifier.initialize(systemParameters.p, systemParameters.q, systemParameters.g);\n        IS_PARAMETERS_SET = true;\n    }\n\n    error InvalidSealerKeyNumber(uint256 shares, uint256 authorities);\n\n    // generates the public key of the elgamal crypto system\n    // - the public key is generated from all submitted public key shares by the sealer nodes\n    // - their product forms the public key\n    function generatePublicKey() external onlyOwner {\n        // public key can only be generated once\n        require(!IS_PUBKEY_SET, 'The public key is already set.');\n\n        // every sealer needs to have published it's public key share\n        // require(\n            // election.publicKeyShareWallet.length == NR_OF_AUTHORITY_NODES,\n            // 'Public key shares !== number of authorities.'\n        // );\n        if(election.publicKeyShareWallet.length !=\n           NR_OF_AUTHORITY_NODES)\n            revert InvalidSealerKeyNumber({\n                shares: election.publicKeyShareWallet.length,\n                authorities: NR_OF_AUTHORITY_NODES\n            });\n\n        // set an initial key (here, we take the first)\n        address firstSealerAddress = election.publicKeyShareWallet[0];\n        uint256 key = election.pubKeyShareMapping[firstSealerAddress].share;\n\n        // form the product of all public key shares\n        for (uint256 i = 1; i < election.publicKeyShareWallet.length; i++) {\n            address addr = election.publicKeyShareWallet[i];\n            key = key.modMul(election.pubKeyShareMapping[addr].share, systemParameters.p);\n        }\n\n        // set the public key\n        publicKey = key;\n\n        IS_PUBKEY_SET = true;\n\n        // trigger the creation of the verifiers (for proof verification)\n        // they depend on the system parameters and public key, that's why\n        // they are created only once the public key is set\n        createVerifiers();\n    }\n\n    // create proof verifiers\n    function createVerifiers() private onlyOwner onlyIfPubKeySet onlyIfSysParamsSet {\n        voteVerifier.initialize(systemParameters.p, systemParameters.q, systemParameters.g, publicKey);\n        sumVerifier.initialize(systemParameters.p, systemParameters.q, systemParameters.g, publicKey);\n    }\n\n    // open the Ballot and change into state VOTING\n    function openBallot() public onlyOwner onlyIfPubKeySet onlyIfSysParamsSet {\n        require(votingState == VotingState.KEY_GENERATION, 'Need state KEY_GENERATION.');\n        votingState = VotingState.VOTING;\n    }\n\n    // close the Ballot and change into state TALLYING\n    function closeBallot() public onlyOwner onlyIfPubKeySet onlyIfSysParamsSet {\n        require(votingState == VotingState.VOTING, 'Need state VOTING.');\n\n        votingState = VotingState.TALLYING;\n    }\n\n    // combine all submitted decrypted shares to find the final tally\n    // each sealer has to first submit it's decrypted share\n    // the product of all decrypted shares will form the final result (nr of yes-votes)\n    function combineDecryptedShares() public {\n        require(votingState == VotingState.TALLYING, 'Need state TALLYING.');\n        require(election.decryptedShareWallet.length == NR_OF_AUTHORITY_NODES, 'Nr of shares !== nr of sealers.');\n\n        // define starting value (here, we take the share of the first address)\n        address firstSealerAddress = election.decryptedShareWallet[0];\n        uint256 res = election.decryptedShareMapping[firstSealerAddress].share;\n\n        // calculate the product of all decrypted shares\n        for (uint256 i = 1; i < election.decryptedShareWallet.length; i++) {\n            address addr = election.decryptedShareWallet[i];\n            res = res.modMul(election.decryptedShareMapping[addr].share, systemParameters.p);\n        }\n\n        uint256 mh = election.sumCipher.b.modMul(res.modInv(systemParameters.p), systemParameters.p);\n\n        // decode message\n        uint256 m = 0;\n        uint256 g = systemParameters.g;\n        uint256 p = systemParameters.p;\n        while ((g.modPow(m, p)) != mh) {\n            // the homomorphic property will reveal how many yes-votes there are\n            m = m + 1;\n        }\n\n        // set the result\n        election.yesVotes = m;\n\n        // move into the RESULT state\n        votingState = VotingState.RESULT;\n    }\n\n    // /////////////////////////////////\n    // SEALER core functions\n    // /////////////////////////////////\n\n    error SealerSubmitted();\n\n    // submit the public key share from the distributed key generation\n    function submitPublicKeyShare(uint256 key, uint256 proof_c, uint256 proof_d)\n        external\n        returns (bool, string memory)\n    {\n        // accept key shares only if state is KEY_GENERATION\n        // and the public key does not yet exist\n        require(votingState == VotingState.KEY_GENERATION, 'Need state KEY_GENERATION.');\n        require(!IS_PUBKEY_SET, 'Public key shares can only be submitted if the public key is not yet set.');\n        require(\n            keyGenProofVerifier.verifyProof(proof_c, proof_d, key, msg.sender),\n            'Key Generation Proof is not correct.'\n        );\n\n        // check if this address has already submitted a share\n        bool sealerAlreadySubmitted = false;\n\n        for (uint256 i; i < election.publicKeyShareWallet.length; i++) {\n            if (election.publicKeyShareWallet[i] == msg.sender) {\n                sealerAlreadySubmitted = true;\n                revert SealerSubmitted();\n            }\n        }\n\n        PublicKeyShare memory publicKeyShare = PublicKeyShare(key, KeyShareProof(proof_c, proof_d));\n\n        if (!sealerAlreadySubmitted) {\n            // add sealer address to array\n            election.publicKeyShareWallet.push(msg.sender);\n        }\n\n        // add or replace the share\n        election.pubKeyShareMapping[msg.sender] = publicKeyShare;\n\n        return (true, 'Key Generation Proof is valid.');\n    }\n\n    // submit the decrypted share (a decryption share of all vote-ciphers)\n    function submitDecryptedShare(uint256 share, uint256 a, uint256 b, uint256 a1, uint256 b1, uint256 d, uint256 f)\n        external\n        returns (bool, string memory)\n    {\n        // only allow submission if in state\n        require(votingState == VotingState.TALLYING, 'The contract needs to be in state: TALLYING.');\n\n        // don't accept if proof verification fails\n        uint256 publicKeyShare = election.pubKeyShareMapping[msg.sender].share;\n        require(sumVerifier.verifyProof(a, b, a1, b1, d, f, msg.sender, publicKeyShare));\n\n        // check if this address has already submitted a share\n        bool sealerAlreadySubmitted = false;\n\n        for (uint256 i; i < election.decryptedShareWallet.length; i++) {\n            if (election.decryptedShareWallet[i] == msg.sender) {\n                sealerAlreadySubmitted = true;\n            }\n        }\n\n        DecryptedShare memory decryptedShare = DecryptedShare(share, DecryptedShareProof(a1, b1, d, f));\n\n        if (!sealerAlreadySubmitted) {\n            // add sealer address to array\n            election.decryptedShareWallet.push(msg.sender);\n        }\n\n        // add or replace the share\n        election.decryptedShareMapping[msg.sender] = decryptedShare;\n\n        // store the cipher for later decryption\n        election.sumCipher = Cipher(a, b);\n\n        emit VoteStatusEvent(msg.sender, true, 'DecryptedShareProof accepted');\n        return (true, 'Sumproof accepted');\n    }\n\n    // /////////////////////////////////\n    // VOTER core functions\n    // /////////////////////////////////\n\n    // checks if the given address is allowed to vote\n    // only addresses which are not found in the priviledged addresses array can vote\n    function isVoter(address addr) private view returns (bool) {\n        for (uint8 i = 0; i < priviledgedAddresses.length; i++) {\n            if (priviledgedAddresses[i] == addr) {\n                return false;\n            }\n        }\n        return true;\n    }\n\n    function vote(\n        uint256[2] calldata cipher,\n        uint256[2] calldata a,\n        uint256[2] calldata b,\n        uint256[2] calldata c,\n        uint256[2] calldata f\n    ) external returns (bool, string memory) {\n        require(votingState == VotingState.VOTING, 'Vote not open.');\n        require(isVoter(msg.sender), 'Address not allowed to vote.');\n        require(!election.hasVoted[msg.sender], 'Voter already voted.');\n        require(voteVerifier.verifyProof(cipher, a, b, c, f, msg.sender), 'Vote Proof not accepted.');\n\n        VoteProof memory voteProof = VoteProof(a, b, c, f);\n        Cipher memory _cipher = Cipher(cipher[0], cipher[1]);\n        Voter memory voter = Voter(msg.sender, _cipher, voteProof);\n\n        // add Voter struct\n        election.voters.push(voter);\n        election.nrOfVoters += 1;\n        election.hasVoted[msg.sender] = true;\n\n        emit VoteStatusEvent(msg.sender, true, 'Vote was accepted');\n        return (true, 'Vote was accepted');\n    }\n\n    // /////////////////////////////////\n    // getters\n    // /////////////////////////////////\n\n    // get the voting question\n    function getVotingQuestion() external view returns (string memory) {\n        return election.votingQuestion;\n    }\n\n    // get system parameters\n    function getParameters() external view onlyIfSysParamsSet returns (uint256[3] memory) {\n        return [systemParameters.p, systemParameters.q, systemParameters.g];\n    }\n\n    // get the total number of public key shares\n    function getNrOfPublicKeyShares() public view returns (uint256) {\n        return election.publicKeyShareWallet.length;\n    }\n\n    // get the total number of public key shares\n    function getPublicKeyShares() public view returns (address  [] memory) {\n        return election.publicKeyShareWallet;\n    }\n\n    // get combined public key of the system\n    function getPublicKey() public view onlyIfPubKeySet returns (uint256) {\n        return publicKey;\n    }\n\n    // get a vote cipher at a specific index\n    function getVote(uint256 idx) public view returns (uint256, uint256) {\n        return (election.voters[idx].cipher.a, election.voters[idx].cipher.b);\n    }\n\n    // get the total number of votes in election.voters\n    function getNumberOfVotes() public view returns (uint256) {\n        return election.voters.length;\n    }\n\n    // get the status of the vote\n    function getBallotStatus() public view returns (string memory) {\n        if (votingState == VotingState.KEY_GENERATION) {\n            return 'KEY_GENERATION';\n        }\n\n        if (votingState == VotingState.VOTING) {\n            return 'VOTING';\n        }\n\n        if (votingState == VotingState.TALLYING) {\n            return 'TALLYING';\n        }\n\n        if (votingState == VotingState.RESULT) {\n            return 'RESULT';\n        }\n    }\n\n    // get the total number of decrypted shares\n    function getNrOfDecryptedShares() public view returns (uint256) {\n        return election.decryptedShareWallet.length;\n    }\n\n    // get a decrypted share at a specific index\n    function getDecryptedShare(uint256 idx) public view returns (uint256) {\n        address addr = election.decryptedShareWallet[idx];\n        return election.decryptedShareMapping[addr].share;\n    }\n\n    // get vote result\n    function getVoteResult() public view returns (uint256) {\n        require(votingState == VotingState.RESULT, 'The contract needs to be in state: RESULT.');\n        return election.yesVotes;\n    }\n}\n",
  "sourcePath": "/home/kevin/coding/dao-voting/provotum-v2/contracts/contracts/FiniteField/Ballot.sol",
  "compiler": {
    "name": "solc",
    "version": "0.8.4+commit.c7e474f2.Emscripten.clang"
  },
  "schemaVersion": "3.4.11",
  "updatedAt": "2023-05-27T20:47:33.973Z",
  "devdoc": {
    "kind": "dev",
    "methods": {},
    "version": 1
  },
  "userdoc": {
    "kind": "user",
    "methods": {},
    "version": 1
  }
}