{
  "contractName": "ModuloMathLib",
  "abi": [
    {
      "inputs": [
        {
          "internalType": "uint256",
          "name": "a",
          "type": "uint256"
        },
        {
          "internalType": "uint256",
          "name": "b",
          "type": "uint256"
        },
        {
          "internalType": "uint256",
          "name": "modulus",
          "type": "uint256"
        }
      ],
      "name": "modAdd",
      "outputs": [
        {
          "internalType": "uint256",
          "name": "res",
          "type": "uint256"
        }
      ],
      "stateMutability": "view",
      "type": "function"
    },
    {
      "inputs": [
        {
          "internalType": "uint256",
          "name": "a",
          "type": "uint256"
        },
        {
          "internalType": "uint256",
          "name": "b",
          "type": "uint256"
        },
        {
          "internalType": "uint256",
          "name": "modulus",
          "type": "uint256"
        }
      ],
      "name": "modSub",
      "outputs": [
        {
          "internalType": "uint256",
          "name": "res",
          "type": "uint256"
        }
      ],
      "stateMutability": "view",
      "type": "function"
    },
    {
      "inputs": [
        {
          "internalType": "uint256",
          "name": "a",
          "type": "uint256"
        },
        {
          "internalType": "uint256",
          "name": "b",
          "type": "uint256"
        },
        {
          "internalType": "uint256",
          "name": "modulus",
          "type": "uint256"
        }
      ],
      "name": "modMul",
      "outputs": [
        {
          "internalType": "uint256",
          "name": "res",
          "type": "uint256"
        }
      ],
      "stateMutability": "view",
      "type": "function"
    },
    {
      "inputs": [
        {
          "internalType": "uint256",
          "name": "a",
          "type": "uint256"
        },
        {
          "internalType": "uint256",
          "name": "b",
          "type": "uint256"
        },
        {
          "internalType": "uint256",
          "name": "modulus",
          "type": "uint256"
        }
      ],
      "name": "modDiv",
      "outputs": [
        {
          "internalType": "uint256",
          "name": "res",
          "type": "uint256"
        }
      ],
      "stateMutability": "view",
      "type": "function"
    },
    {
      "inputs": [
        {
          "internalType": "uint256",
          "name": "a",
          "type": "uint256"
        },
        {
          "internalType": "uint256",
          "name": "b",
          "type": "uint256"
        },
        {
          "internalType": "uint256",
          "name": "modulus",
          "type": "uint256"
        }
      ],
      "name": "modPow",
      "outputs": [
        {
          "internalType": "uint256",
          "name": "res",
          "type": "uint256"
        }
      ],
      "stateMutability": "view",
      "type": "function"
    },
    {
      "inputs": [
        {
          "internalType": "uint256",
          "name": "a",
          "type": "uint256"
        },
        {
          "internalType": "uint256",
          "name": "p",
          "type": "uint256"
        }
      ],
      "name": "modInv",
      "outputs": [
        {
          "internalType": "uint256",
          "name": "res",
          "type": "uint256"
        }
      ],
      "stateMutability": "pure",
      "type": "function"
    }
  ],
  "bytecode": "0x61054961003a600b82828239805160001a60731461002d57634e487b7160e01b600052600060045260246000fd5b30600052607381538281f3fe730000000000000000000000000000000000000000301460806040526004361061007c5760003560e01c8063a9008ad61161005a578063a9008ad6146100cc578063e616559e146100df578063edbe2fbd146100f257600080fd5b80633e7657dd146100815780636378bd6c146100a6578063a2f0dc8d146100b9575b600080fd5b61009461008f366004610241565b610105565b60405190815260200160405180910390f35b6100946100b4366004610241565b610124565b6100946100c7366004610241565b61013a565b6100946100da366004610220565b610147565b6100946100ed366004610241565b610206565b610094610100366004610241565b610213565b60008161011284866104a2565b61011c91906104b9565b949350505050565b600061011c846101348585610147565b84610206565b600081610112848661026c565b600082158061015557508183145b8061015e575081155b1561016857600080fd5b8183111561017d5761017a82846104b9565b92505b600060018385835b81156101d0576101958284610284565b9050836101a2818361038f565b6101ac908761044a565b836101b7818561042b565b6101c190876104a2565b92975090955093509150610185565b60008512156101f8576101e2856104cd565b6101ec90886104a2565b95505050505050610200565b509293505050505b92915050565b600081610112848661042b565b60008161011284866102db565b60008060408385031215610232578182fd5b50508035926020909101359150565b600080600060608486031215610255578081fd5b505081359360208301359350604090920135919050565b6000821982111561027f5761027f6104e7565b500190565b600082610293576102936104fd565b500490565b600181815b808511156102d35781600019048211156102b9576102b96104e7565b808516156102c657918102915b93841c939080029061029d565b509250929050565b60006102e783836102ee565b9392505050565b6000826102fd57506001610200565b8161030a57506000610200565b8160018114610320576002811461032a57610346565b6001915050610200565b60ff84111561033b5761033b6104e7565b50506001821b610200565b5060208310610133831016604e8410600b8410161715610369575081810a610200565b6103738383610298565b8060001904821115610387576103876104e7565b029392505050565b60007f7fffffffffffffffffffffffffffffffffffffffffffffffffffffffffffffff818413828413858304851182821616156103ce576103ce6104e7565b600160ff1b848712868205881281841616156103ec576103ec6104e7565b858712925087820587128484161615610407576104076104e7565b8785058712818416161561041d5761041d6104e7565b505050929093029392505050565b6000816000190483118215151615610445576104456104e7565b500290565b600080831283600160ff1b01831281151615610468576104686104e7565b837f7fffffffffffffffffffffffffffffffffffffffffffffffffffffffffffffff01831381161561049c5761049c6104e7565b50500390565b6000828210156104b4576104b46104e7565b500390565b6000826104c8576104c86104fd565b500690565b6000600160ff1b8214156104e3576104e36104e7565b0390565b634e487b7160e01b600052601160045260246000fd5b634e487b7160e01b600052601260045260246000fdfea264697066735822122087735b83c71d86959aadd2db9b6bf3b575782e02a1903c62eea8596eea2d639d64736f6c63430008040033",
  "immutableReferences": {},
  "source": "pragma solidity ^0.8.4;\n\n// Modulo math function used by the contracts in the eVoting system\nlibrary ModuloMathLib {\n    function modAdd(uint256 a, uint256 b, uint256 modulus) public view returns (uint256 res) {\n        return (a + b) % modulus;\n    }\n\n    function modSub(uint256 a, uint256 b, uint256 modulus) public view returns (uint256 res) {\n        return (a - b) % modulus;\n    }\n\n    function modMul(uint256 a, uint256 b, uint256 modulus) public view returns (uint256 res) {\n        return (a * b) % modulus;\n    }\n\n    function modDiv(uint256 a, uint256 b, uint256 modulus) public view returns (uint256 res) {\n        return modMul(a, modInv(b, modulus), modulus);\n    }\n\n    function modPow(uint256 a, uint256 b, uint256 modulus) public view returns (uint256 res) {\n        return (a**b) % modulus;\n    }\n\n    /// @dev Modular inverse of a (mod p) using euclid.\n    /// \"a\" and \"p\" must be co-prime.\n    /// @param a The number.\n    /// @param p The modulus.\n    // inspired by: https://github.com/stonecoldpat/anonymousvoting/blob/master/LocalCrypto.sol\n    function modInv(uint256 a, uint256 p) public pure returns (uint256 res) {\n        if (a == 0 || a == p || p == 0) revert();\n        if (a > p) a = a % p;\n        int256 t1;\n        int256 t2 = 1;\n        uint256 r1 = p;\n        uint256 r2 = a;\n        uint256 q;\n        while (r2 != 0) {\n            q = r1 / r2;\n            (t1, t2, r1, r2) = (t2, t1 - int256(q) * t2, r2, r1 - q * r2);\n        }\n        if (t1 < 0) return (p - uint256(-t1));\n        return uint256(t1);\n    }\n}\n",
  "sourcePath": "/home/kevin/coding/dao-voting/provotum-v2/contracts/contracts/FiniteField/ModuloMathLib.sol",
  "compiler": {
    "name": "solc",
    "version": "0.8.4+commit.c7e474f2.Emscripten.clang"
  },
  "schemaVersion": "3.4.11",
  "updatedAt": "2023-05-27T19:55:17.356Z",
  "devdoc": {
    "kind": "dev",
    "methods": {
      "modInv(uint256,uint256)": {
        "details": "Modular inverse of a (mod p) using euclid. \"a\" and \"p\" must be co-prime.",
        "params": {
          "a": "The number.",
          "p": "The modulus."
        }
      }
    },
    "version": 1
  },
  "userdoc": {
    "kind": "user",
    "methods": {},
    "version": 1
  }
}