{
  "contractName": "ModuloMathLib",
  "abi": [
    {
      "constant": true,
      "inputs": [
        {
          "name": "a",
          "type": "uint256"
        },
        {
          "name": "b",
          "type": "uint256"
        },
        {
          "name": "modulus",
          "type": "uint256"
        }
      ],
      "name": "modAdd",
      "outputs": [
        {
          "name": "res",
          "type": "uint256"
        }
      ],
      "payable": false,
      "stateMutability": "view",
      "type": "function"
    },
    {
      "constant": true,
      "inputs": [
        {
          "name": "a",
          "type": "uint256"
        },
        {
          "name": "b",
          "type": "uint256"
        },
        {
          "name": "modulus",
          "type": "uint256"
        }
      ],
      "name": "modSub",
      "outputs": [
        {
          "name": "res",
          "type": "uint256"
        }
      ],
      "payable": false,
      "stateMutability": "view",
      "type": "function"
    },
    {
      "constant": true,
      "inputs": [
        {
          "name": "a",
          "type": "uint256"
        },
        {
          "name": "b",
          "type": "uint256"
        },
        {
          "name": "modulus",
          "type": "uint256"
        }
      ],
      "name": "modMul",
      "outputs": [
        {
          "name": "res",
          "type": "uint256"
        }
      ],
      "payable": false,
      "stateMutability": "view",
      "type": "function"
    },
    {
      "constant": true,
      "inputs": [
        {
          "name": "a",
          "type": "uint256"
        },
        {
          "name": "b",
          "type": "uint256"
        },
        {
          "name": "modulus",
          "type": "uint256"
        }
      ],
      "name": "modDiv",
      "outputs": [
        {
          "name": "res",
          "type": "uint256"
        }
      ],
      "payable": false,
      "stateMutability": "view",
      "type": "function"
    },
    {
      "constant": true,
      "inputs": [
        {
          "name": "a",
          "type": "uint256"
        },
        {
          "name": "b",
          "type": "uint256"
        },
        {
          "name": "modulus",
          "type": "uint256"
        }
      ],
      "name": "modPow",
      "outputs": [
        {
          "name": "res",
          "type": "uint256"
        }
      ],
      "payable": false,
      "stateMutability": "view",
      "type": "function"
    },
    {
      "constant": true,
      "inputs": [
        {
          "name": "a",
          "type": "uint256"
        },
        {
          "name": "p",
          "type": "uint256"
        }
      ],
      "name": "modInv",
      "outputs": [
        {
          "name": "res",
          "type": "uint256"
        }
      ],
      "payable": false,
      "stateMutability": "pure",
      "type": "function"
    }
  ],
  "bytecode": "0x6102c1610030600b82828239805160001a6073146000811461002057610022565bfe5b5030600052607381538281f3fe7300000000000000000000000000000000000000003014608060405260043610610099576000357c010000000000000000000000000000000000000000000000000000000090048063a9008ad611610077578063a9008ad61461012b578063e616559e1461014e578063edbe2fbd1461017757610099565b80633e7657dd1461009e5780636378bd6c146100d9578063a2f0dc8d14610102575b600080fd5b6100c7600480360360608110156100b457600080fd5b50803590602081013590604001356101a0565b60408051918252519081900360200190f35b6100c7600480360360608110156100ef57600080fd5b50803590602081013590604001356101b8565b6100c76004803603606081101561011857600080fd5b50803590602081013590604001356101d6565b6100c76004803603604081101561014157600080fd5b50803590602001356101e5565b6100c76004803603606081101561016457600080fd5b5080359060208101359060400135610277565b6100c76004803603606081101561018d57600080fd5b5080359060208101359060400135610286565b6000818385038115156101af57fe5b06949350505050565b60006101ce846101c885856101e5565b84610277565b949350505050565b6000818385018115156101af57fe5b60008215806101f357508183145b806101fc575081155b1561020657600080fd5b8183111561021d57818381151561021957fe5b0692505b600060018385835b811561025057818381151561023657fe5b949594048581029094039391928383029003919050610225565b6000851215610269575050505060000382039050610271565b509293505050505b92915050565b6000818385028115156101af57fe5b60008183850a8115156101af57fefea165627a7a723058202337511c513c4dcd8d7608ded5f0cc15f2f261d72af3a64f59641759d58530e10029",
  "source": "pragma solidity ^0.5.3;\n\n// Modulo math function used by the contracts in the eVoting system\nlibrary ModuloMathLib {\n    function modAdd(uint256 a, uint256 b, uint256 modulus) public view returns (uint256 res) {\n        return (a + b) % modulus;\n    }\n\n    function modSub(uint256 a, uint256 b, uint256 modulus) public view returns (uint256 res) {\n        return (a - b) % modulus;\n    }\n\n    function modMul(uint256 a, uint256 b, uint256 modulus) public view returns (uint256 res) {\n        return (a * b) % modulus;\n    }\n\n    function modDiv(uint256 a, uint256 b, uint256 modulus) public view returns (uint256 res) {\n        return modMul(a, modInv(b, modulus), modulus);\n    }\n\n    function modPow(uint256 a, uint256 b, uint256 modulus) public view returns (uint256 res) {\n        return (a**b) % modulus;\n    }\n\n    /// @dev Modular inverse of a (mod p) using euclid.\n    /// \"a\" and \"p\" must be co-prime.\n    /// @param a The number.\n    /// @param p The modulus.\n    // inspired by: https://github.com/stonecoldpat/anonymousvoting/blob/master/LocalCrypto.sol\n    function modInv(uint256 a, uint256 p) public pure returns (uint256 res) {\n        if (a == 0 || a == p || p == 0) revert();\n        if (a > p) a = a % p;\n        int256 t1;\n        int256 t2 = 1;\n        uint256 r1 = p;\n        uint256 r2 = a;\n        uint256 q;\n        while (r2 != 0) {\n            q = r1 / r2;\n            (t1, t2, r1, r2) = (t2, t1 - int256(q) * t2, r2, r1 - q * r2);\n        }\n        if (t1 < 0) return (p - uint256(-t1));\n        return uint256(t1);\n    }\n}\n",
  "sourcePath": "/home/kevin/coding/dao-voting/provotum-v2/contracts/contracts/FiniteField/ModuloMathLib.sol",
  "compiler": {
    "name": "solc",
    "version": "0.5.3+commit.10d17f24.Emscripten.clang"
  },
  "schemaVersion": "3.4.11",
  "updatedAt": "2023-07-05T20:15:31.571Z",
  "devdoc": {
    "methods": {
      "modInv(uint256,uint256)": {
        "details": "Modular inverse of a (mod p) using euclid. \"a\" and \"p\" must be co-prime.",
        "params": {
          "a": "The number.",
          "p": "The modulus."
        }
      }
    }
  },
  "userdoc": {
    "methods": {}
  }
}